:020000041000EA
:1000000000001020790D0010410B0010510B001062
:10001000B90D0010BB0D0010BD0D00100000000058
:10002000000000000000000000000000BF0D0010F4
:10003000C10D001000000000C30D0010C50D001020
:10004000C90D0010CB0D0010CD0D00109D02001049
:10005000D10D0010D30D0010D50D0010D70D0010DC
:10006000D90D0010DB0D0010DD0D0010DF0D0010AC
:10007000E10D0010E30D0010E50D0010E70D00107C
:10008000E90D0010EB0D0010ED0D0010EF0D00104C
:10009000F10D0010F30D0010F50D0010F70D00101C
:1000A000F90D0010FB0D0010A70A0010FF0D001045
:1000B000010E0010030E0010050E0010070E0010B8
:1000C000090E00100B0E00100D0E00100F0E001088
:1000D000110E0010130E0010150E0010170E001058
:1000E000190E00101B0E00101D0E00101F0E001028
:1000F000210E0010230E0010250E0010270E0010F8
:10010000290E00102B0E00102D0E00102F0E0010C7
:10011000310E0010330E00109D0A0010370E001033
:10012000390E00103B0E00103D0E00103F0E001067
:10013000410E0010430E0010450E0010470E001037
:10014000490E00104B0E00104D0E00104F0E001007
:10015000510E0010530E0010550E0010570E0010D7
:10016000590E00105B0E00105D0E00105F0E0010A7
:10017000610E0010630E0010650E0010670E001077
:10018000690E00106B0E00106D0E00106F0E001047
:10019000710E0010730E0010750E0010770E001017
:1001A000790E00107B0E00107D0E00107F0E0010E7
:1001B000810E0010830E0010850E0010870E0010B7
:1001C000890E00108B0E00108D0E00108F0E001087
:1001D000910E0010930E0010950E0010970E001057
:1001E000990E00109B0E00109D0E00109F0E001027
:1001F000A10E0010A30E0010A50E0010A70E0010F7
:1002000010B5054C237833B9044B13B10448AFF350
:1002100000800123237010BD000C002000000000AE
:1002200038BB001008B5034B1BB103490348AFF3BB
:10023000008008BD00000000040C002038BB001046
:10024000014B1960704700BF240C002008B502481C
:1002500001F00AFF08BD00BF00E40B4008B5084BE1
:100260004FF00072C3F88020BFF34F8FBFF36F8F42
:100270004168006801F08CF8024B01221A6008BD49
:1002800000E100E01C0C002008B5034803F08EFBE1
:10029000012001F0BBF808BDA086010000B583B0C5
:1002A00001F0CCFB10F0400F02D103B05DF804FB6D
:1002B000402001F0CBFB012000F0E8FC0B4B0122B9
:1002C0001A60022001F07AFB10F1060FF9D001A8A4
:1002D00001F0D6FB0198053001F078FB022001F017
:1002E00065FB10F1060FF9D0DFE700BF200C0020FE
:1002F0002DE9F04184B003A801F0B0FB0028FAD149
:10030000DDED037AF8EE677A9FED1C7A67EE877A67
:1003100017EE900A0AF082F804460D4603A801F091
:10032000AFFB0028FAD10398154FA7FB00373F0C0D
:10033000144B03FB170C144BA3FB0C384FEAD828C3
:100340004FF4616000FB18CC104EA6FB0C3676090A
:10035000C6EB0610ACEB80000AF03EF822462B46B6
:1003600009F0FEFECDE90001334642463946084811
:1003700004F06AF804B0BDE8F08100BF00008039E5
:1003800007452EC280510100C5B3A2918988888893
:1003900080AD00102DE9F0412DED028B8AB0AA4806
:1003A00004F0BCF8A94804F0B9F8A94804F0B6F87C
:1003B000A84804F0B3F8A84804F0B0F801268DF876
:1003C00020608DF821608DF8226000248DF8234094
:1003D0008DF824408DF81C608DF81D408DF81E406E
:1003E0008DF81F609D4804F099F89D4804F096F838
:1003F0009C49692003F018FBDFF8D4824FF40073A6
:10040000C8F80C30984B1C80984B1C80984F994B27
:100410003B6002237B607C723E72BC72FC72384689
:1004200001F02CF8944D954B2B604FF000636B60FE
:100430006C722C72AE72EC72284601F01FF83A46CC
:100440008F49284600F0DEFF2146284600F0B6FF1F
:100450006968286800F0C4FF4FF00073C8F80030E6
:100460008849192003F0E0FA02AB0AAA12E9070052
:1004700003C31A80844B01930096334622463146CB
:10048000824801F017FC00284AD181487B4B036069
:10049000022303720F2343600123837200F0EEFFF7
:1004A0007C4804F03BF80321784801F0B1FD044694
:1004B00000283FD1784804F031F8784B7348186031
:1004C000694ADA60694A1A6102225A619A61002215
:1004D0005A6001219960DA611A62714A5A62714B5D
:1004E0001960082101F080FD044638BB01216748EE
:1004F00001F086FD044630BB6B4804F00FF86748F6
:1005000001F0AEFD2546674B1B68012B20D1002D65
:10051000F9D1574B5968186800F03AFF0135F2E7F6
:100520000446624803F0FAFF20460AB0BDEC028B95
:10053000BDE8F0815E4803F0F1FFF5E701465D4854
:1005400003F082FFF0E701465B4803F07DFFEBE735
:100550005A4803F079FF072500E0013D002D0DDB2F
:10056000424B5978294101F00101554803F06CFFD5
:10057000042DF2D1202003F07BFFEEE73A4B8022DE
:100580001A7046225A70394B00221A804D4803F0E7
:10059000C5FF424801F064FD2546424B1B68012B14
:1005A00008D1002DF9D1324B5968186800F0F0FEDF
:1005B0000135F2E7444803F047FF072500E0013D1D
:1005C000002D0DDB284B5978294101F001013C48F1
:1005D00003F03AFF042DF2D1202003F049FFEEE7AB
:1005E000214A002313705370204A1380374803F0C8
:1005F00095FF2A4801F034FD2A4B01221A60254656
:10060000284B1B68012B08D1002DF9D1184B5968D4
:10061000186800F0BDFE0135F2E7284803F014FF2A
:10062000072500E0013D002D54DB104B597829418E
:1006300001F00101224803F007FF042DF2D1202030
:1006400003F016FFEEE700BFB4AD001000AE0010DF
:1006500044AE001090AE0010E0AE00100CAF0010E1
:1006600028AF00104D0200107C0C0020780C0020F8
:10067000340C002000A00040280C00200090004016
:100680005D02001089020010A086010000E40B400A
:10069000400C00207CAF0010A8AF00104C0C0020D4
:1006A00041020010240C002004B0001060AF0010C4
:1006B00098AF0010C8AF0010E8AF001028B00010CD
:1006C00044B0001048B000106CB0001090B00010A2
:1006D00000E100E0AC4A0223137000235370AB4AE0
:1006E0001380AB4803F01AFFAA4801F0B9FCAA4BEB
:1006F00001221A602546A84B1B68012B08D1002D4A
:10070000F9D1A64B5968186800F042FE0135F2E7AE
:10071000A34803F099FE072500E0013D002D0DDB05
:100720009A4B5978294101F001019E4803F08CFE53
:10073000042DF2D1202003F09BFEEEE7934D697863
:10074000994803F081FE6A78984B1A708E4A012608
:100750001670002353702B80954803F0DFFE8D4800
:1007600001F07EFC8C4B1E608B4B1B68012B08D16B
:10077000002CF9D1894B5968186800F009FE013442
:10078000F2E78C4803F060FE072400E0013C002CF7
:100790000DDB7E4B5978214101F00101814803F0C6
:1007A00053FE042CF2D1202003F062FEEEE7774CDA
:1007B0006178814803F048FE6378804C237007EE2F
:1007C000903AF8EEE77A9FED7E8A67EE887A17EE28
:1007D000900A09F023FE02460B467A4803F034FEE5
:1007E000237807EE103AB8EEC77A704B1B7807EE05
:1007F000903AF8EEE77A47EE087A17EE900A09F099
:100800000DFE02460B46704803F01EFE6F4B082299
:100810001A60002000F0FAF9012000F0F7F9002139
:10082000084601F0E3F830B1694803F077FE694803
:1008300003F074FEFEE7022001F0C0F8044610F158
:10084000060F3FF471AE052001F0C0F830B16248E8
:1008500003F064FE5F4803F061FEFEE7022001F052
:10086000A5F8044610F1060F3FF45EAE4FF4007099
:1008700001F0CEF8044610F1060F3FF455AE01F03A
:10088000ADF8054630B1554803F048FE514803F035
:1008900045FEFEE7524803F0D7FDFFF729FD4DE086
:1008A0003A4B5978414A1170374901240C700022A3
:1008B0004A701A80374801F0D3FB374B1C602C4636
:1008C000354B1B68012B08D1002CF9D1334B5968EB
:1008D000186800F05DFD0134F2E72C4B5B78374A75
:1008E000137007EE903AF8EEE77A9FED357A67EEEF
:1008F000877A2E4B1B7807EE103AB8EEC77A77EE60
:10090000277A17EE900A09F089FD06460F46354B07
:100910001B68002B34D0344803F096FDFFF7E8FC49
:1009200032463B46314803F08FFD00232D4A1360C9
:100930002F4A1360254B4FF000721A60294B1B6839
:100940001BB92B4B1B68002BF8D00F4A02231370E6
:10095000002353700D4A13800E4801F081FB0E4BAB
:1009600001221A602C460C4B1B68012B98D1002CDD
:10097000F9D10A4B5968186800F00AFD0134F2E712
:100980001C4803F061FDC9E77C0C0020780C0020B6
:10099000B4B000104C0C0020240C0020340C0020BB
:1009A000D4B0001044B00010E8B000107B0C002060
:1009B00000B1001020B1001034B100107A0C0020FA
:1009C0000000803B4CB1001064B1001000E100E079
:1009D00080B100109CB10010ACB10010CCB100107F
:1009E000E0B100101C0C0020F0B1001000B20010AB
:1009F000200C0020F8B1001008B5C9B202F0ACF824
:100A000008BD10B588B00C468DF8002000228DF886
:100A10000120019002928DF80C300491059206920B
:100A20000792684602F0AAF8A04202D1002008B05E
:100A300010BD6FF00800FAE710B588B00C468DF8CD
:100A4000002000228DF80120019202908DF80C30D8
:100A50000491059206920792684602F08FF8A04230
:100A600002D1002008B010BD6FF00800FAE70000C6
:100A700010B505490B2002F055F8044608B1204690
:100A800010BD02F087F8FAE700093D0008B50346FB
:100A9000014803F0D9FCFEE71CB2001008B50120A4
:100AA00000F0B4FC08BD08B5022000F0AFFC08BDA2
:100AB00008B502224FF4E131024B186802F00CFD38
:100AC00008BD00BF0000002010B584B0194B6C4673
:100AD0000FCB84E80F00002000F0D6FA012000F0D0
:100AE000D3FA022000F0D0FA402000F0CDFA2046E0
:100AF00000F0EEF8034610B1184604B010BDFFF741
:100B0000D7FF031EF8DB00F0F7F868B901210020D9
:100B100000F022F900F09CF803460028ECD09F2258
:100B200005490648FFF7B2FF982203490348FFF73B
:100B3000ADFF00BFA4B2001038B200107CB20010AC
:100B400008B5024803F0EAFCFEE700BF84B20010DB
:100B500008B5024803F0E2FCFEE700BF90B20010C7
:100B60004FF0FF3070474FF0FF3070474FF0FF30CD
:100B700070474FF0FF3070472DE9F041D8B90C466F
:100B800090460546074602E00134013701354545E8
:100B90000EDA0C4E304602F001FDC1B22170304633
:100BA00002F000FD23780D2BEED10A2323700137CC
:100BB0003846BDE8F08103F06DF8092303604FF07B
:100BC000FF37F5E70020044070B50138012813D83D
:100BD0000C461646002505E014F8011B0A4802F0F1
:100BE000E1FC0135B5420DDA23780A2BF4D10D2151
:100BF000054802F0D7FCEFE703F04CF80923036047
:100C00004FF0FF36304670BD0020044010B504465A
:100C10000B4B1B6883420CD90A4A04EB440302EBDA
:100C2000830304EB4404596852F8240000F098FB55
:100C300010BD392204490548FFF728FFECE700BF43
:100C4000D8B20010B4B20010ECB2001020B3001003
:100C500038B50024254600E001340A4B1B68A34246
:100C60000ED92046FFF7D2FF04EB4403064800EB01
:100C7000830000F003FC0028EED06FF00705EBE7DF
:100C8000284638BDD8B20010B4B2001010B50446E2
:100C90000B4B1B6883420CD90A4A04EB440302EB5A
:100CA000830304EB4404596852F8240000F070FBFD
:100CB00010BD442204490548FFF7E8FEECE700BFF9
:100CC000D8B20010B4B20010ECB2001020B3001083
:100CD00058B110B4064C0FC884E80F00054B012230
:100CE0001A7000205DF8044B70476FF05F0070478A
:100CF000800C0020900C002070B50024264600E0F7
:100D00000134124B1D68A5420BD904EB4403104873
:100D100000EB830000F0B2FB0028F1D06FF0070673
:100D2000EEE70C4B1B680BB100230AE0284602F0EB
:100D3000DBFF084B1860F7E7064A12680021D15420
:100D400001339D42F8D8304670BD00BFDCB20010C0
:100D5000E0B20010940C0020054B1B68834204D9BC
:100D6000044B1B681954002070476FF00200704755
:100D7000DCB20010940C00204B4885464B4880475D
:100D800080B94B494B4A4C4B9B1A03DD043BC85876
:100D9000D050FBDC49494A4A00209142BCBF41F88F
:100DA000040BFAE747488047474880474748804751
:100DB000FFF7FEFFFEE7FEE7FEE7FEE7FEE7FEE7E2
:100DC000FEE7FEE7FEE7FEE7FEE7FEE7FEE7FEE7FB
:100DD000FEE7FEE7FEE7FEE7FEE7FEE7FEE7FEE7EB
:100DE000FEE7FEE7FEE7FEE7FEE7FEE7FEE7FEE7DB
:100DF000FEE7FEE7FEE7FEE7FEE7FEE7FEE7FEE7CB
:100E0000FEE7FEE7FEE7FEE7FEE7FEE7FEE7FEE7BA
:100E1000FEE7FEE7FEE7FEE7FEE7FEE7FEE7FEE7AA
:100E2000FEE7FEE7FEE7FEE7FEE7FEE7FEE7FEE79A
:100E3000FEE7FEE7FEE7FEE7FEE7FEE7FEE7FEE78A
:100E4000FEE7FEE7FEE7FEE7FEE7FEE7FEE7FEE77A
:100E5000FEE7FEE7FEE7FEE7FEE7FEE7FEE7FEE76A
:100E6000FEE7FEE7FEE7FEE7FEE7FEE7FEE7FEE75A
:100E7000FEE7FEE7FEE7FEE7FEE7FEE7FEE7FEE74A
:100E8000FEE7FEE7FEE7FEE7FEE7FEE7FEE7FEE73A
:100E9000FEE7FEE7FEE7FEE7FEE7FEE7FEE7FEE72A
:100EA000FEE7FEE7FEE7FEE7000010209D0F0010C2
:100EB00044BB001000000020240A0020000C002089
:100EC0004C150020AD0F0010A13C00109503001040
:100ED00008B503460B4A126842B10A4A1068034437
:100EE000094A934206D8074A136008BD054A0749D4
:100EF0001160F2E702F0CEFE0C2303604FF0FF30EA
:100F0000F3E700BF980C002000F00F2050150020E0
:100F10006FF0100070476FF0100070474FF0804383
:100F20009B6803F46063B3F5006F22D013D8B3F568
:100F3000806F20D0B3F5C06F02D14FF4FA5301E0B7
:100F4000DBB9114B4FF080429268C2F38212D3405A
:100F50000E4A13607047B3F5406F10D0B3F5606F61
:100F600001D10B4BEEE7B3F5206F0BD14FF4E1034A
:100F7000E8E7084BE6E7084BE4E7064BE2E74FF407
:100F80000043DFE7034BDDE7008793039C0C002061
:100F90000080BB00000E27070048E80100207047D2
:100FA00070470020704700207047704730B583B00D
:100FB00000BF0023019302E0019B01330193019ADA
:100FC0001B4B9A42F8DD1B4C1B4BA3604FF0804338
:100FD0000122C3F8002C4022C3F80C240022C3F8DD
:100FE000002C164D284600F0B1FC284600F0B2FC5B
:100FF000284600F0ABFCD4F8883043F47003C4F802
:101000008830BFF34F8FBFF36F8F042000F0C4F818
:10101000FFF784FFFFF7C9FFFFF7C2FFFFF7C3FF2A
:10102000FFF752FDFFF7BDFF62B603B030BD00BF52
:10103000FEFF030000ED00E00000001000A00240F1
:101040003F2809D94038C0B20E49CB68012202FAC4
:1010500000F01843C86070471F280AD92038C0B272
:101060004FF080418B6C012202FA00F01843886433
:1010700070474FF080414B6A012202FA00F018439A
:1010800048627047000008403F280AD94038C0B283
:101090001049CB68012202FA00F023EA0000C86080
:1010A00070471F280BD92038C0B24FF080418B6C9D
:1010B000012202FA00F023EA0000886470474FF032
:1010C00080414B6A012202FA00F023EA00004862E4
:1010D000704700BF0000084010B5044600214FF4DF
:1010E0007A7002F027FC4FF080439B682342FAD0CD
:1010F000002010BD08B5072849D8DFE800F01A48DD
:101100002E29040F3D254FF08042936843F40023BD
:1011100093604FF00060FFF7DFFF08BD4FF08042A3
:10112000936843F4801393604FF08050FFF7D4FF2F
:10113000F3E74FF08042936843F4802393604FF0CD
:101140008060FFF7C9FFE8E7124800F097F9E4E78D
:101150004FF00050FFF7C0FFDFE74FF080435A6FBA
:1011600042F011025A679A6842F480329A604FF056
:101170008070FFF7B1FFD0E74FF08042936843F4EF
:10118000003393604FF00070FFF7A6FFC5E76FF0E4
:101190000200C2E77CB5001038B54FF080439C6870
:1011A00004F46064072800F28A80DFE800F02188F8
:1011B0004F6204326B454FF080439B6813F4002F5D
:1011C00012D04FF08042936823F4606343F40063CD
:1011D00093604FF40050FFF77FFF0546002864D16D
:1011E000FFF79CFE284638BD0420FFF783FFE8E7A1
:1011F0004FF080439B6813F4802F06D04FF080425D
:10120000936823F460639360E3E70020FFF772FFC5
:10121000F4E74FF080439B6813F4801F08D04FF031
:101220008042936823F4606343F420639360D0E7C3
:101230000520FFF75FFFF2E70720FFF75BFF4FF0A6
:101240008042936843F460639360C2E74FF0804349
:101250009B6813F4803F08D04FF08042936823F4DA
:10126000606343F480639360B3E70220FFF742FFBB
:10127000F2E74FF08042936823F4606343F4C06365
:101280009360A6E74FF080439B6813F4003F08D0BB
:101290004FF08042936823F4606343F440639360AB
:1012A00097E70620FFF726FFF2E74FF080429368AA
:1012B00023F46063234393606FF0090592E76FF0B6
:1012C00002058FE73F280BD94038C0B2012303FA4B
:1012D00000F0114B9860104B9B681842FBD170478F
:1012E0001F280DD92038C0B2012303FA00F04FF0B7
:1012F000804358644FF080435B6C1842FAD17047CA
:10130000012303FA00F04FF0804358604FF0804310
:101310005B681842FAD170470000084010B50446D7
:1013200010F0010F0CD114F0020F0DD114F0040FC6
:101330000ED114F0080F0FD1204602F0ABFB10BD08
:101340000020FFF7A1FEEEE70120FFF79DFEEDE78D
:101350000220FFF799FEECE74020FFF795FEEBE750
:1013600008B5094B984202D000F0E0F908BD0748E3
:10137000036A01F00102C90001F01001114323EAE0
:1013800001030362F2E700BF00C00040006C0040B0
:1013900008B5084B984202D000F0CAF908BD0648CB
:1013A000036A01F00102C90001F0100111434B4032
:1013B0000362F3E700C00040006C004008B502681B
:1013C000064B9A4202D000F0B7F908BD042901D1BA
:1013D0000020FAE76FF01000F7E700BF00C0004000
:1013E00008B5064B984202D000F0FBF908BD044A4C
:1013F000936A01F0030119439162F7E700C00040CE
:101400000068004008B502F065FB08BD08B502F0B1
:10141000D5FB08BD08B5064B984202D000F0E3F9B1
:1014200008BD01F00301A3F5B0435962F8E700BF1E
:1014300000C0004008B5064B984202D000F0D5F934
:1014400008BDA3F5B043586A00F00300F8E700BFF9
:1014500000C0004008B5044B984202D000F0C7F924
:1014600008BD6FF01000FBE700C0004008B500F0B9
:1014700021FA08BD08B502F0EFFB08BD70B50446BF
:101480000568A74B9D4229D003F580539D4227D084
:1014900003F580539D4225D003F5EC2303F58063CB
:1014A0009D4221D09F4B9D4240F02E810426012079
:1014B000B040FFF733FFFFF7DDFF012800F0278181
:1014C000032E13DD032E19DD237A012B40D0022BCE
:1014D00027D0002B54D06FF0100070BD0026E6E737
:1014E0000126E4E70226E2E70326E0E76268A17A44
:1014F0002846FFF7AFFF0028E4D0EEE76268217AC4
:10150000284600F093F90028E7D1032E00F39E80CF
:10151000637A042B00F2FD80DFE803F04B66875608
:1015200077008149086A63685A0002F002021B01D1
:1015300003F02003134303430B628868626853007F
:1015400003F00203C2F34002134303438B60DCE762
:101550007549086A63685A0002F002021B0103F031
:101560002003134303430B6288686268530003F04F
:101570000203C2F34002134320EA03038B60C4E773
:101580006949086A63685A0002F002021B0103F00D
:101590002003134320EA03030B6288686268530048
:1015A00003F00203C2F34002134320EA03038B60FB
:1015B000ABE72B6E626823EA02032B666B6E6268F0
:1015C00023EA02036B6655E02B6E626813432B66B9
:1015D0006B6E626823EA02036B66D5F8B830626806
:1015E0001343C5F8B83045E02B6E626813432B6691
:1015F0006B6E626823EA02036B66D5F8B8306268E6
:1016000023EA0203C5F8B83034E02B6E626823EA9F
:1016100002032B666B6E626813436B66D5F8B830B5
:1016200062681343C5F8B83024E02B6E626823EA81
:1016300002032B666B6E626813436B66D5F8B83095
:10164000626823EA0203C5F8B83013E0637A042B1A
:1016500062D8DFE803F00314341434003248016A1E
:1016600063689A0002F004025B0103F04003134335
:101670000B430362237A002B40D100202DE72A4937
:101680000E6A63685A0002F00202180100F020009E
:101690000243980000F004005B0103F040030343A1
:1016A000134326EA03030B620A6A636803F001002E
:1016B000DB0003F01003034313430B62DAE71A4E17
:1016C000306A63685A0002F00202190101F0200139
:1016D0000A43990001F004014FEA431C0CF0400C4E
:1016E00041EA0C010A4303F00101DB0003F010039F
:1016F0000B43134320EA03033362BBE76268E17ADA
:101700002846FFF7B3FEE8E66FF00200E5E60020AA
:10171000E3E66FF00200E0E66FF00200DDE600BFF6
:101720000080004000C00040006C00400162704733
:1017300083694B4083617047036804294ED8DFE812
:1017400001F0130334234300DA6A41680A43DA6282
:10175000DA6D416822EA0102DA659A6A416822EA92
:1017600001029A6200207047DA6A416822EA0102A7
:10177000DA62DA6D416822EA0102DA659A6A416842
:101780000A439A6200207047DA6A416822EA01023D
:10179000DA62DA6D416822EA0102DA659A6A416822
:1017A00022EA01029A6200207047DA6A41680A431D
:1017B000DA62DA6D416822EA0102DA659A6A416802
:1017C0000A439A6200207047DA6D41680A43DA657D
:1017D0009A6A41680A439A62002070476FF00200DB
:1017E00070478163704781647047006C704770B5C3
:1017F00005460C461646FFF73DFE012814D024B1DD
:10180000012C0AD06FF0020070BDD5F8C02022EA8A
:101810000602C5F8C0200020F6E7D5F8C020324304
:10182000C5F8C0200020EFE70020EDE770B50446C2
:101830000E461546FFF71EFE012836D0236B2B43BC
:1018400023636560052E32D8DFE806F0030B131A18
:101850002128656165602567E567C4F88850002028
:1018600024E0256165602567E567C4F8885000209D
:101870001CE0C4F88850E5672567A560002015E0E6
:10188000C4F88850E567E566A56000200EE0C4F85E
:101890008850A5672567A560002007E0C4F8885038
:1018A000A567E566A560002000E0002070BD6FF030
:1018B0000200FBE770B504460D461646FFF7DAFD59
:1018C000012811D0032D34D8DFE805F002101C28C0
:1018D000D4F8B03023EA0603C4F8B030D4F8B4200A
:1018E00022EA0606C4F8B460002070BDD4F8B03017
:1018F0003343C4F8B030D4F8B42022EA0606C4F862
:10190000B460F1E7D4F8B03023EA0603C4F8B0308D
:10191000D4F8B4201643C4F8B460E5E7D4F8B03086
:101920003343C4F8B030D4F8B4201643C4F8B460DC
:10193000DAE7D4F8B03023EA0603C4F8B030D4F8BC
:10194000B43023EA0606C4F8B460CDE708B500F069
:101950000AF808BD08B500F022F808BDD0F800016B
:1019600000F48030704710B50446D0F8003123F001
:101970000103C0F800310123C0F800372046FFF70B
:10198000EDFF0028FAD0D4F8003143F00103C4F889
:1019900000312046FFF7E2FF0028FAD010BDD0F852
:1019A000003123F00103C0F80031704708B501464B
:1019B000014800F08BF808BD0060004008B5014602
:1019C000014800F09AF808BD0060004008B50146E3
:1019D000014800F0AAF808BD0060004008B50248C0
:1019E00000F0B0F808BD00BF0060004008B54FF03F
:1019F000804CDCF8083043F40033CCF80830C1F3F5
:101A00000B020146014800F0B8F808BD0060004034
:101A100010B504460648FFF731FD064A936843F0C7
:101A20000103936022460121034800F0CCF810BD69
:101A300088B50010006C00400060004008B5024806
:101A400000F00CF908BD00BF0060004008B5014679
:101A5000014800F007F908BD0060004008B50146E4
:101A6000064A136923F010031361044B1B6913F03A
:101A7000100FFAD0014800F0FDF808BD00600040EA
:101A800008B50146064A136923F010031361044B9D
:101A90001B6913F0100FFAD0014800F0FBF808BDE5
:101AA00000600040024B1B6913F0080FFAD1704729
:101AB00000600040044B1B6913F0080F01D10020A7
:101AC00070476FF0050070470060004070B511F07E
:101AD00026060FD005460C46FFF7E4FF2B6933437B
:101AE0002B6114F0060F01D1002070BDFFF7DAFF63
:101AF0000020FAE76FF00200F7E770B511F0260654
:101B000010D005460C46FFF7CDFF2B6923EA0603EC
:101B10002B6114F0060F01D1002070BDFFF7C2FF4A
:101B20000020FAE76FF00200F7E738B505460C46EB
:101B3000FFF7C0FF18B9C4F31304AC6038BD6FF0F1
:101B40000500FBE738B50446FFF7B4FF90B905463A
:101B5000236943F400432361FFF7A4FF236943F0A3
:101B600001032361FFF79EFF236923F400432361F0
:101B7000284638BD6FF00505FAE7F8B504460F466C
:101B80001546FFF797FFD8B906464FF40043236187
:101B9000FFF788FF00232361FFF784FF236943F4E5
:101BA00000432361FFF77EFF6560FFF77BFF27603F
:101BB000FFF778FF236923F4004323613046F8BD23
:101BC0006FF00506FAE7F8B504460D461746FFF72D
:101BD00071FF00283FD10646236943F40043236187
:101BE000FFF760FF012D2BD1202F1ED0A36923F01A
:101BF0002003A361FFF756FF236923F4C063236129
:101C0000FFF750FF236947F480721A432261FFF700
:101C100049FF236943F001032361FFF743FF236971
:101C200023F4004323613046F8BDA36943F0200349
:101C3000A361FFF737FF236943F480732361E6E76D
:101C4000A36923F02003A361FFF72CFF236923F48A
:101C500080732361E1E76FF00506E4E7006900F0B7
:101C6000D0007047036901F0D00123EA010303614A
:101C70000020704738B505460C46FFF71BFF18B922
:101C80002CB16B68236038BD6FF00500FBE74FF0A7
:101C9000FF30F8E738B505460C46FFF70BFF18B9DB
:101CA0002CB12B68236038BD6FF00500FBE74FF0C7
:101CB000FF30F8E72DE9F04182B004460F46904628
:101CC0001D46099E7F4B984217D003F580539842DA
:101CD0005CD003F5805398425AD003F5EC23984228
:101CE00058D003F58063984256D03222764977481F
:101CF000FEF7CCFE4FF0FF3300E00023042D00F38D
:101D0000D580022B05DC724A1268B6EB520F00F246
:101D1000D080022B04DD6E4B1B68B342C0F0CC8038
:101D2000684B9C423AD06B4B9C4255D06A4B9C42CC
:101D300071D06A4B9C4200F08D80694B9C4240F010
:101D4000BE802D20FFF7BEFA3120FFF79DF96548D0
:101D5000FFF794FB9DF82830002B40F09B809DF806
:101D60002930002B40F09A809DF82A30002B40F05B
:101D7000998001969DF8203000932B4642463946C3
:101D8000204600F0A7FB02B0BDE8F0810123B5E7D3
:101D90000223B3E70323B1E70423AFE70D20FFF7E6
:101DA00091FA0620FFF770F94F48FFF767FB9DF89F
:101DB00028304BB99DF8293053B99DF82A30002BB3
:101DC000D7D06FF00200DEE74848FFF757FBF1E796
:101DD0004748FFF753FBF0E70E20FFF773FA0720A1
:101DE000FFF752F94348FFF749FB9DF8283053B9F4
:101DF0009DF829305BB99DF82A30002BB9D03E48B8
:101E0000FFF73CFBB5E73D48FFF738FBF0E73C4800
:101E1000FFF734FBEFE70F20FFF754FA0820FFF736
:101E200033F93848FFF72AFB9DF8283053B99DF85D
:101E300029305BB99DF82A30002B9AD03248FFF741
:101E40001DFB96E73148FFF719FBF0E73048FFF735
:101E500015FBEFE72B20FFF735FA3020FFF714F9D9
:101E60002C48FFF70BFB9DF828305BB99DF8293013
:101E700063B99DF82A30002B3FF47BAF2648FFF76B
:101E8000FDFA76E72548FFF7F9FAEFE72448FFF770
:101E9000F5FAEEE72348FFF7F1FA60E72248FFF78B
:101EA000EDFA61E72148FFF7E9FA62E76FF0020017
:101EB00069E76FF0020066E76FF0020063E76FF01A
:101EC000010060E70060044030B300107CB30010F4
:101ED0009C0C0020007004400080044000E00B4097
:101EE00000E40B4048B6001094B50010A0B50010F7
:101EF000ACB50010B8B50010DCB50010C4B50010CA
:101F0000D0B50010E8B500100CB60010F4B5001004
:101F100000B6001018B600103CB6001024B6001031
:101F200030B6001054B6001060B600106CB6001049
:101F3000244B98422AD003F58053984226D003F5CB
:101F40008053984222D003F5EC23984217D003F532
:101F50008063984213D01C4B984203D003F58063F2
:101F6000984229D14FF080439B68C3F34223072B4B
:101F700025D8DFE803F015241F1710121A1D124B85
:101F80009842E8D003F580639842E4D00F4B18687C
:101F90004008400870470E48FBE74FF4E100F8E7BF
:101FA0000C48F6E74FF4FA50F3E74FF40040F0E73F
:101FB0000948EEE70948ECE76FF0020070476FF060
:101FC000020070470060044000E00B409C0C0020C1
:101FD000000E2707008793030080BB000048E8013C
:101FE00008B500F00BFB08BD08B500F049FB08BDC3
:101FF00008B500F0A5FB08BD08B500F0ABFB08BDB7
:1020000008B500F0F3FB08BD08B500F00CFC08BDF6
:1020100008B500F01CFC08BD08B500F043FC08BD85
:1020200008B500F04CFC08BD08B500F051FC08BD37
:1020300008B500F07FFC08BD08B500F07FFC08BDC6
:1020400008B500F0ABFC08BD08B500F0ADFC08BD5C
:1020500008B500F0BCFC08BD08B500F0C7FC08BD21
:1020600008B500F0C7FC08BD08B500F001FD08BDCB
:1020700070B504460368744A934214D002F5805246
:10208000934248D002F58052934246D002F5EC22AA
:10209000934244D002F58062934202D04FF0FF3564
:1020A00002E0042500E000256368032B39DC002CE6
:1020B00000F0C480E368002B3AD06369B3F5803F39
:1020C00080F0BF802068FFF793FFC6B20023E36172
:1020D00023625E4905EB850001EBC00241F8304008
:1020E000536082F82530D368012B27D020684368DD
:1020F00013F0020F28D1236953B3A26942B32168B8
:102100008B689BB243EA02438B602268D36943F435
:102110008003D36125E00125C6E70225C4E7032536
:10212000C2E740F2B6224A494A48FEF7AFFCBEE792
:102130002369002BC1D16FF002007EE02268536852
:1021400023F001035360D1E76168FFF755FFD2E741
:10215000226893689BB293602268D36923F480035A
:10216000D3612068FFF750FF012811D0E368002BEE
:102170002AD0626942B321688B681B0C1B0492B29F
:1021800013438B602268D36943F04003D36125E099
:102190002368DB6813F4004FE8D1E368002BE5D136
:1021A000206905EB8503294A02EBC3031969082E50
:1021B00008D9A269520002F0E9F82369E360A36933
:1021C0006361D3E7A269F6E7226893681B0C1B04DE
:1021D00093602268D36923F04003D361E36873B14D
:1021E000636963B1236953B1A36943B105EB850307
:1021F000164A02EBC303012283F8242007E005EB13
:102200008503124A02EBC303002283F824202268CC
:10221000D36943F08013D3612268536843F001030C
:102220005360A26805EB8505084B03EBC505EA6022
:1022300023684FF400621A62002070BD6FF0020044
:10224000FBE76FF00200F8E700600440A00C0020FC
:102250008CB30010E4B300102DE9F84305460C469A
:10226000684B984215D003F58053984234D003F55B
:102270008053984233D003F5EC23984232D003F5D3
:102280008063984202D04FF0FF3804E04FF004081A
:1022900001E04FF000082068FFF7AAFEC0B208284E
:1022A00023D966697600A7697F00E36843B1E169D5
:1022B000721A19442846FFF7BFFEE3690344E3613D
:1022C000E169711A1AD01F2912DD1F212846FFF774
:1022D000BFFE4FF0010913E04FF00108DBE74FF0BC
:1022E0000208D8E74FF00308D5E76669A769DCE77D
:1022F0002846FFF7ADFE4FF0010901E04FF000095D
:102300002369E3B12369A3B1216A7A1A19442846E3
:10231000FFF78AFE216A08442062381A07D01F2876
:102320002BDD02212846FFF78FFE49F00409E36800
:1023300043B3236ABB4243D04846BDE8F883E36910
:10234000B342DFD100236B6208EB88092E4B03EB0D
:10235000C909484601F098FB99F826303BB1636AF9
:1023600043B10021204698474FF00009CAE74FF0DB
:102370000009C7E74FF00009C4E7411E2846FFF7F0
:1023800063FED2E7236ABB42D3D100236B6208EB22
:1023900088091D4B03EBC909484601F075FB99F804
:1023A00026303BB1636A43B10021204698474FF085
:1023B0000009BEE74FF00009BBE74FF00009B8E79E
:1023C000E369B342B8D100236B620F4D4FEA880630
:1023D00008EB880005EBC00001F056FBB04405EBAC
:1023E000C80595F826303BB1636A43B10021204609
:1023F00098474FF000099FE74FF000099CE74FF026
:10240000000999E700600440A00C0020F8B50546DB
:102410000E462B4B984214D003F5805398423DD082
:1024200003F5805398423BD003F5EC23984239D012
:1024300003F58063984202D04FF0FF3402E0042499
:1024400000E0002404EB84031E4A02EBC30393F86C
:1024500027303BB1B3682BB96B6823F4907343F416
:1024600080736B6031462846FFF7F6FE074604EBA3
:102470008403144A02EBC3035B68ABB104EB84042E
:10248000104B03EBC40494F827302BB1B3681BB195
:102490006B6823F490736B603846F8BD0124D1E774
:1024A0000224CFE70324CDE72846FFF7B5FD04EB70
:1024B0008403044A02EBC30301225A60DEE700BF33
:1024C00000600440A00C002008B501460068FFF73A
:1024D000C3FE08BD2DE9F041044616461F46DDF84F
:1024E0001880434B984211D003F58053984256D040
:1024F00003F58053984254D003F5EC23984252D010
:1025000003F58063984269D1042500E00025394B2A
:1025100005EB850C4FEACC0003EBCC0C00221A50E3
:10252000CCF808200123CCF80C30CCF81020CCF8E3
:102530001C20CCF820206FF00102CCF81420CCF83D
:1025400018208CF8273063602B4B236169B36368D4
:1025500043F00203636007992046FFF741FDB8F19D
:10256000FF0F3ED8E36843EA0843E360236A23622F
:1025700005EB85051F4B03EBC50595F827303BB1EF
:10258000012F17D0022F1AD0032F1DD0042F20D0D7
:1025900056B3E36843F40053E360002025E00125CF
:1025A000B5E70225B3E70325B1E7636823F002032B
:1025B0006360D0E7636843F480336360E2E7636895
:1025C00043F440336360DFE7636843F4E023636010
:1025D000DCE7636843F470236360D9E76FF00200BF
:1025E00003E06FF0020000E03046BDE8F08100BF7C
:1025F00000600440A00C00200101010038B51F4B11
:102600001B68B1EB530F35D804460D46FFF790FC1D
:10261000B0FBF5F56A0815F0010F02D0531C00213C
:1026200008E01346FBE703EBD3735B1002EBD272B7
:10263000521001310F2B01DD0729F4DD082916D0D6
:10264000606920F0FF00D2B202436261626922F445
:102650007F421B029BB213436361636923F47023BF
:10266000090401F4702119436161002038BD0F2273
:102670001346E5E76FF00200F8E700BF9C0C00206E
:1026800001294DD010294EDC2B4B984214D003F574
:102690008053984239D003F58053984237D003F5E0
:1026A000EC23984235D003F58063984202D04FF076
:1026B000FF3302E0042300E00023026B12F0010F5D
:1026C00034D110B403EB83021C4C04EBC202D26879
:1026D000012A2ED1426822F00102426003EB8303FB
:1026E00004EBC30399600F2915DCC36823F47063FE
:1026F000090201F470611943C160436843F00103AA
:10270000436000205DF8044B70470123D5E70223A6
:10271000D3E70323D1E7C36823F47063C360ECE716
:102720006FF0020070476FF0020070476FF0060014
:1027300070476FF00600E5E700600440A00C002041
:10274000C36813F4706F03D0C068C0F303207047F0
:102750001020704703293CDC436813F0020F3BD084
:10276000204B984214D003F5805398422BD003F5A8
:102770008053984229D003F5EC23984227D003F5E3
:102780008063984202D04FF0FF3302E0042300E060
:10279000002303EB8303144A02EBC30393F82730AF
:1027A000EBB110B44468012303FA01F10A0444EACE
:1027B00001414160436862F470221340436000208D
:1027C0005DF8044B70470123E3E70223E1E70323AD
:1027D000DFE76FF0020070476FF0060070470020DF
:1027E000704700BF00600440A00C0020C36823F4C1
:1027F0003043C360032907D8DFE801F002080B105B
:10280000C36843F40043C36000207047C368C360DB
:10281000FAE7C36843F48053C360F5E7C36843F441
:102820000053C360F0E7C36813F4004F09D1C368D5
:1028300013F4805F07D1C36813F4005F05D1012052
:10284000704700207047022070470320704703291B
:102850000BD8DFE801F0020C151EC36823F001035A
:10286000C360C36823F00203C36000207047C368DD
:1028700043F00103C360C36823F00203C360F4E7BD
:10288000C36823F00103C360C36843F00203C3605D
:10289000EBE7C36843F00103C360C36843F002037E
:1028A000C360E2E710B50446FFF7BAFB10F1060F6C
:1028B00004D0636843F020036360002010BD036B05
:1028C00013F0010F01D1002070476FF00500704731
:1028D00071B3F8B5064615460F460AB91046F8BD5D
:1028E000FFF7A6FB04463046FFF782FB0346A542EE
:1028F00000D82C46082B01D924F0010400200AE05E
:10290000012C12D932883A52023C02300DE0327862
:102910003A54013C0130002CE1D0082BF7D9032CAC
:10292000EED932683A50043C0430012CF3D1D6E79A
:1029300000207047C069C0F30560704761B3F8B507
:10294000064614460F460AB91046F8BDFFF778FB55
:1029500005463046FFF74CFB0346AC4200D82546FF
:10296000082B01D925F0010500200AE0012D08D926
:102970003A5A3280023D023003E03A5C3270013D47
:102980000130002DE1D0082BF7D9032DEED93A58AC
:102990003260043D0430F4E700207047C069C0F3A2
:1029A0000520C0F1200070471E2909D8C36923F40F
:1029B000F813090401F4F8111943C16100207047AC
:1029C0006FF002007047C069C0F3044070474B1EAF
:1029D0001E2B08D8C36923F01F0301F01F01194300
:1029E000C161002070476FF002007047436A0B43DB
:1029F0004362704770B50446FFF73AFB054650BB8B
:102A00002368194A934214D002F58052934224D08D
:102A100002F58052934222D002F5EC22934220D05C
:102A200002F58062934202D04FF0FF3302E00423AC
:102A300000E0034603EB83030C4A02EBC3030122CD
:102A400083F82620266821463046FFF7DFFC014642
:102A50003046FFF701FB284670BD0123EAE7022359
:102A6000E8E70323E6E700BF00600440A00C002075
:102A700070B5044600234362026A0262274B984203
:102A800014D003F5805398422FD003F58053984219
:102A90002DD003F5EC2398422BD003F580639842A8
:102AA00002D04FF0FF3502E0042500E0002505EBE1
:102AB00085031B4951F83330B3B1AAB1636813F0F1
:102AC000020F18D005EB8503154A52F83310204643
:102AD000FFF79CFC60622046FFF72CFF064620466D
:102AE000FFF771FFB042EDD370BD0125DFE702258E
:102AF000DDE70325DBE705EB8503094A52F83300E0
:102B0000FFF7E2FC60622046FFF714FF064620460E
:102B1000FFF759FFB042EED3E6E700BF0060044084
:102B2000A00C002038B504460D461E20FEF7ACFA76
:102B30001F20FEF7A9FA0548FEF7A0FC2B46224607
:102B40000349044800F09EF938BD00BF78B6001074
:102B5000006002400070024000B583B0034600915F
:102B6000034A0449044800F0DFF903B05DF804FBB0
:102B700000C00B40006002400070024008B50246F1
:102B80000249034800F02AFA08BD00BF00C00B400C
:102B90000070024008B5024800F0BCF908BD00BF53
:102BA0000070024010B48446002002E00C791454F6
:102BB0000130DCF80C4014F07C5F01D09842F5D174
:102BC0005DF8044B70470B6823F0030302F0030C1D
:102BD00043EA0C030B60036823F03003120102F098
:102BE00030021A430260002070470B6843F0040370
:102BF0000B60436823F0010343600020704700002E
:102C00000368C3F3033013F4704F00D11020400069
:102C1000024B1B68B3FBF0F0704700BF9C0C002018
:102C20000268C2F3032312F4706F00D11023034A29
:102C3000106840085B00B0FBF3F070479C0C00206C
:102C400008B5034608463D490968914270D3B1FB77
:102C5000F2F14FEA510C11F0010F02D00CF1010218
:102C600000E0624660B10ABB016821F4706141F482
:102C700080710160016821F4704141F4805101606C
:102C80006BB1002A32D11A6822F4704242F48052A9
:102C90001A601A6822F4706242F480721A60002B83
:102CA00042D1002847D0FFF7ABFF08BD0F2A08D953
:102CB000016841F470610160016841F47041016094
:102CC000DEE7016821F470614FEA0C2E0EF4706E9D
:102CD00041EA0E010160016821F470414FEA023EB1
:102CE0001FFA8EFE41EA0E010160C9E70F2A08D9DA
:102CF0001A6842F470421A601A6842F470621A60EC
:102D0000CDE7196821F470414FEA0C3C1FFA8CFCA6
:102D100041EA0C011960196821F47061120202F491
:102D200070620A431A60BAE71846FFF779FFBCE7FA
:102D30006FF00200B9E76FF00200B6E79C0C0020CC
:102D40000B6823F44033120402F4403213430B6047
:102D5000036823F440331A430260002070470B6875
:102D600023F44023920402F4402213430B600368CF
:102D700023F440231A4302600020704738B505460B
:102D80000C46022909D86B6823F44073240204F42A
:102D900040741C436C60002038BD40F2B6320249DA
:102DA0000248FDF773FEEEE708B4001058B40010B7
:102DB00038B505460C46022909D86B6823F44063F0
:102DC000A40204F440641C436C60002038BD40F24F
:102DD000CA3202490248FDF759FEEEE708B4001076
:102DE00058B4001038B505460C46022909D86B685E
:102DF00023F44053240304F440541C436C6000202B
:102E000038BD40F2DE3202490248FDF73FFEEEE7F0
:102E100008B4001058B40010436823F480334360B2
:102E2000002070470B6943F001030B61836843F096
:102E300080738360002070470B6923F001030B61EE
:102E4000836823F08073836000207047436823F019
:102E5000FF030B43436000207047036823F0C00367
:102E60008901C9B20B4303607047836843F00403D0
:102E7000836000207047836843F002038360002072
:102E8000704700002DE9F04105460C46174698466C
:102E90001F4B00261E605E608660FFF7E6FF284637
:102EA000FFF7E9FF21462846FFF7BCFF42462146CF
:102EB0002846FFF7C5FE324621462846FFF740FF69
:102EC000324621462846FFF74AFFF9B22046FFF76F
:102ED000BDFF31462046FFF751FF31462046FFF740
:102EE00067FF31462046FFF77DFF2046FFF794FF3E
:102EF000324621462846FFF766FE03212846FFF7A3
:102F0000ACFF21462846FFF770FE3046BDE8F08151
:102F1000680D0020836843F0010383600020704740
:102F2000806800F001007047F8B505460F4614466A
:102F30001E46FFF7F5FF10B13EB90020F8BDA422F0
:102F400023492448FDF7A2FDF6E70121224800F0BD
:102F50008DFD002839D1EA6812F4F85FFBD13946BB
:102F60002846FFF769FF324608E0012323804FF42B
:102F7000704CA4F800C0A4F800C0203A202AF4D86D
:102F8000A2B11F2A1FD813019BB243F001039DF881
:102F9000181043EA41331BB29BB22380102A02D996
:102FA0004FF4704323804FF470432380EA6812F497
:102FB000F85FFBD139462846FFF734FF064800F09A
:102FC00063FD3046BAE70123E1E76FF00500B5E79E
:102FD00008B4001074B40010680D00202DE9F04F03
:102FE00083B005460E4614465AB1A3687BB1284605
:102FF000FFF796FFA0B12369C3B9002003B0BDE875
:10300000F08FF7226D496E48FDF740FDEDE76368EC
:10301000002BECD1F82269496A48FDF737FDE6E755
:10302000FB2266496848FDF731FDE4E70121674866
:1030300000F01CFD0190002840F0BD80002363617A
:10304000A361624A5360D4F80880B8EB030B18BF41
:103050004FF0010B6768B7EB030A18BF4FF0010A86
:10306000D4F810903B4647469846B9F1000F00F05F
:1030700099804AEA4B03227B43EA42231BB29AB26D
:10308000B9F11F0F2BDDB9F1200F15D042F0080266
:103090004946B9F1000F17DB4B11B1F5806F16D21D
:1030A000190189B20A435B014B4513D03280474A6C
:1030B0005360A9EB030959E0237842EA433292B204
:1030C00042F004022023F1E709F11F01E4E74FF485
:1030D0008063E9E7217842EA413292B2E6E74FEABB
:1030E000091242F0040212B2217842EA413212B2CD
:1030F00013439BB23380354BC3F80490DDF8049042
:1031000034E0EB68C3F304230E2BFAD8012A0BDD5D
:103110006168A2698B1858788B5C43EA002333807E
:10312000A3690233A36129E06268A369D35C43F415
:1031300070433380A3690133A3611FE0A168626912
:1031400001230A4431462846FFF72CFD0128F5D11A
:103150006369013363611D4B5B68012B02DD013B39
:103160001A4A5360194A5368013B5360174B5A6817
:10317000002A3FF47AAFB8F1000FC2D1002FEAD095
:10318000124B5B68012BD9DDA168626901230A44F7
:1031900031462846FFF706FD0128F5D16369013362
:1031A0006361CBE74746094800F06EFC0FB1A069A8
:1031B00024E7606922E76FF005001FE708B40010FC
:1031C00098B40010A4B4001074B40010680D00206E
:1031D00008B5174B984210D0164B984215D0164B95
:1031E00098421AD0154B98421FD14420FEF76AF836
:1031F0004420FDF725FF002008BD0B20FEF762F8F4
:103200000920FDF71DFF0020F6E70C20FEF75AF815
:103210000A20FDF715FF0020EEE71C20FEF752F80C
:103220002120FDF70DFF0020E6E76FF00200E3E745
:1032300000200440003004400040044000140840D6
:10324000244B98420BD003F58053984207D003F5E6
:103250008053984203D003F57533984231D11E4B09
:10326000984215D0036803F44033B3F5803F26D06D
:10327000036813F4403F1ED0036803F44033B3F5F2
:10328000003F24D14FF4E1030069B3FBF0F0704735
:10329000036803F44033B3F5803F09D0036813F4A7
:1032A000403F11D14FF4E1030069B3FBF0F07047E8
:1032B0004FF48033F8E7094B1B685B08E4E7084BE1
:1032C000E2E76FF0020070476FF0020070476FF0A6
:1032D0000200704700200440001408409C0C0020AD
:1032E0000048E80110B50446334B98420BD003F573
:1032F0008053984207D003F58053984203D003F5DA
:10330000753398424FD105236361032A4ED8DFE815
:1033100002F0021D232C294B1A685208B2FBF1F36C
:1033200001FB132213B1B2EB510F00D9013323611A
:103330002046FFF785FF002807DD236843F400439C
:103340002360236813F4002FFBD010BD1C4AB2FB8E
:10335000F1F301FB1322E5E74FF4E103B3FBF1F3D3
:1033600001FB03F2C2F5E102DCE7164B9C4220D1DF
:10337000236843F400132360B1F5165F0DD04FF4BA
:103380008033B3FBF1F301FB03F2C2F58032B1F5F8
:10339000166F05D900206061C4E707230022F6E715
:1033A00001206061BEE76FF00200CEE76FF002001F
:1033B000CBE76FF00200C8E7002004409C0C00201F
:1033C0000048E8010014084008B500F06BF908BD9A
:1033D00008B500F077F908BD08B500F085F908BD1B
:1033E00038B504460D46254B98420BD003F5805363
:1033F000984207D003F58053984203D003F5753304
:10340000984234D11D4B9C4212D003F580539C420C
:103410000ED003F580539C420AD003F575339C42CD
:1034200028D1022D19D0032D1CD06FF002000FE01F
:10343000012D05D0022D0CD035B16FF0020007E050
:103440000220FDF757FE18B92946204600F094F9EE
:1034500038BD0520FDF74EFEF5E70520FDF74AFED5
:103460000025F0E70620FDF745FE0125EBE76FF0AC
:103470000200EDE76FF00200EAE700BF0020044021
:1034800010B5044600F0C4F9124B9C4212D003F56B
:1034900080539C420ED003F580539C420AD003F522
:1034A00075339C4201D0FD200AE050B101280AD1B9
:1034B000032005E0012808D0022808D000B1F92037
:1034C00010BD0220FCE7F920FAE70120F8E702200E
:1034D000F6E700BF0020044070B504460E461546CE
:1034E00000F09AF9C8B1214B9C421DD0204B9C4260
:1034F00021D0204B9C4225D01F4B9C4233D11F48EA
:10350000FDF7BCFF4420FDF7BFFD29462046FFF72D
:1035100067FF0346E8B1184670BD2046FFF758FE26
:1035200003460028DFD0F6E71548FDF7A7FF09207E
:10353000FDF7AAFDE9E71348FDF7A0FF0A20FDF714
:10354000A3FDE2E71048FDF799FF2120FDF79CFD60
:10355000DBE72046FFF794FF02463146204600F0A5
:1035600031F80346D7E76FF00203D4E700200440A8
:10357000003004400040044000140840A8B6001089
:1035800084B6001090B600109CB6001008B500F08C
:1035900063F908BD08B500F068F908BD08B500F08A
:1035A00061FB08BD08B500F068FB08BD08B500F078
:1035B00066F908BD08B500F066F908BD08B500F069
:1035C00068F908BDF8B504460F461646314B9842D7
:1035D00010D003F5805398420CD003F580539842E5
:1035E00008D003F57533984204D086222A492B4827
:1035F000FDF74CFA01212046FFF7E0FF054608B130
:103600002846F8BD08212046FFF7DEFE05460028C3
:10361000F6D100212046FFF7DFFE05460028EFD156
:1036200000212046FFF7D4FE05460028E8D13246A7
:1036300039462046FFF756FE002828DB154B9C42F2
:1036400010D003F580539C421DD003F580539C425B
:103650001BD003F575339C4202D04FF0FF3202E0DD
:10366000032200E000220E4902EB4203DC0001EBE2
:10367000C3034FF0FF30D8609860002008515860B5
:1036800018745861BCE70122EDE70222EBE705461A
:10369000B6E700BF00200440D8B4001024B50010E5
:1036A000040000204B1F032B09D89902036823F460
:1036B000406301F4406119430160002070476FF0DE
:1036C0000200704721B1012908D06FF00200704755
:1036D000036823F48053036000207047036843F4B9
:1036E0008053036000207047042942D8DFE801F0CE
:1036F000030917253300036823F01003036000203B
:103700007047036843F010030360036823F020034D
:103710000360036823F040030360002070470368E0
:1037200043F010030360036823F020030360036881
:1037300043F04003036000207047036843F0100328
:103740000360036843F020030360036823F0400331
:10375000036000207047036843F0100303600368B0
:1037600043F020030360036843F04003036000203C
:1037700070476FF00200704738B504460D460329C4
:1037800011D81F4B9C4217D003F580539C4232D076
:1037900003F580539C4230D003F575339C4209D029
:1037A0004FF0FF3209E040F2331216491648FDF798
:1037B0006DF9E6E7032200E00022144B9B5CC3B9DD
:1037C000226812F4004203D0236823F400432360EC
:1037D000236823F440332D0405F440351D43256050
:1037E0003AB1236843F400432360236813F4002FA5
:1037F000FBD0002038BD0122DFE70222DDE700BF59
:1038000000200440D8B4001054B50010700D002002
:103810000068C0F3014070470D4B984210D003F58B
:103820008053984210D003F5805398420ED003F590
:103830007533984202D04FF0FF3202E0032200E0DD
:103840000022044B985C70470122FAE70222F8E755
:1038500000200440700D0020436813F0100F01D1C8
:10386000006A70476FF00C007047436813F0800FD8
:1038700002D10162002070476FF00B007047406872
:10388000C0F3032070474068C0F30330C0F1080064
:1038900070474B1E072B08D8036823F00F0301F075
:1038A0000F0119430160002070476FF0020070475C
:1038B00038B54FF0E0239C691A6922F48032184928
:1038C0000A601B6913F0010F21D14FF0E0236FF064
:1038D0007F445C619C6105221A614FF08075114B39
:1038E0001968114A0023A0FB010107F0C7F8B0FBDB
:1038F000F5F30E4A136005FB130084420CD81368DD
:1039000001331360201A2844094B186038BD4FF06A
:10391000E0235D690135E2E7201A054B1860F5E701
:10392000780D00209C0C002040420F006400002015
:103930007C0D002008B50E4B19600E4B1B68002B48
:1039400010DC08B9002008BDFFF7B2FF094B1B6867
:10395000002B0ADD4FF0E022136943F002031361EC
:103960000020F0E76FF00500EDE70020EBE700BF77
:10397000740D00206400002008B5094B1B682BB1B2
:103980006FF00F009847064B00221A60054B1A682B
:103990004FF0E0231A61044B4FF0FF321A6008BD6C
:1039A000740D0020780D00206400002008B5134B32
:1039B0001B68002B1EDC08B9002008BDFFF778FF4C
:1039C0000E4B1B68002B0ADD4FF0E0231B6913F43C
:1039D000803FF5D0094A1368013B1360F0E74FF0D0
:1039E000E0239A69064B1B689A42F8D8FFF7C4FF98
:1039F0000020E2E76FF00500DFE700BF6400002071
:103A00007C0D002010B5054C4FF40072044920468F
:103A100000F022FC034B9C6010BD00BF000E002094
:103A20000000001000ED00E070B504460D4600F106
:103A300010060B4B9A680B4B9A420DD1094B43F879
:103A40002650002C07DB04F01F0264090123934079
:103A5000054A42F8243070BDFFF7D4FFEEE700BFFF
:103A600000ED00E0000E002000E100E050E8003F23
:103A70003BB940E80013002BF8D1BFF35F8F002063
:103A800070476FF005007047BFF35F8F002303603E
:103A9000704700000D4B1B788BB10020704703EB83
:103AA0004C110B4A002042F8210001331F2BF6DD98
:103AB0000CF1010CBCF1040F04DC0023F6E74FF01D
:103AC000000CF7E7014B01221A70E6E70115002010
:103AD0000010002043684FF0000C60E04FF0040E2F
:103AE00001E04FF0000E0CEB4E1E304C44F82E104F
:103AF00004682F4DAC421FD005F58055AC4241D033
:103B000005F58055AC4240D005F5EC2505F58065FE
:103B1000AC423DD0274DAC420BD04FF0FF3E0DE004
:103B20004FF0010EDFE74FF0020EDCE74FF0030E1F
:103B3000D9E74FF0040E01E04FF0000E0CEB4E1EE3
:103B40001D4C44F82E200CF1010C5B081BB313F044
:103B5000010FF8D00468164DAC42C2D005F580556F
:103B6000AC42DDD005F58055AC42DCD005F5EC2546
:103B700005F58065AC42D9D00E4DAC42AED04FF0C9
:103B8000FF3EB0E74FF0010ED8E74FF0020ED5E749
:103B90004FF0030ED2E730BD0CF1010C5B0823B1EE
:103BA00013F0010FF8D030B5D4E7704700100020B3
:103BB0000080004000C000408012002070B5064622
:103BC00004280AD88EB1012E1AD0022E1AD0032E44
:103BD0001AD0042E07D0002508E04E2215491648B9
:103BE000FCF754FFEEE7154D00E0154D2846FDF7B4
:103BF00021FC044601462846FDF70CFC002507E0A1
:103C0000104DF3E7104DF1E7104DEFE70135640873
:103C100074B114F0010FF9D005EB46130C4A52F8B9
:103C20002320002AF2D00B4951F823009047EDE7FA
:103C300070BD00BFB4B6001004B7001000C0004053
:103C4000008000400090004000A0004000040840B8
:103C50000010002080120020014B1878704700BF30
:103C60000015002010B504462046FFF79FFC0028F1
:103C7000FAD02046FFF78AFC10BD38B504460D4641
:103C80002046FFF797FC0028FAD029462046FFF788
:103C900081FC38BD014B1868704700BF68000020E8
:103CA00070B50D4E0D4D761BB61006D0002455F89C
:103CB000043B01349847A642F9D1094E094D761BC1
:103CC00007F02EFFB61006D0002455F8043B01344F
:103CD0009847A642F9D170BD180A0020180A0020A2
:103CE000200A0020180A0020024B0146186800F044
:103CF00003B800BF680000202DE9F04F01F10B066A
:103D0000162E83B0044624D8102900F2BA8000F0A1
:103D10008FFB102618220220B54F3A44A2F1080169
:103D200053688B4200F0BA805A68D96822F00302C7
:103D30001A449D68E9608D60516841F00101204698
:103D4000516003F1080500F079FB284603B0BDE897
:103D5000F08F36F0070600F19480B14200F29180B6
:103D600000F066FBB6F5FC7FC0F09A81730A00F0A4
:103D70008F80042B00F26F81B30903F1390003F146
:103D8000380CC3009A4F3B44A3F108055B689D4281
:103D900006D10CE0002980F22781DB689D4206D025
:103DA0005A6822F00302911B0F29F3DD60463D693A
:103DB000DFF850C265457CD06A6822F00302931B8D
:103DC0000F2B00F37B81002BC7E904CC80F26C81C0
:103DD000B2F5007F80F01A81D308796801334FEA89
:103DE000521E012202FA0EF20A4357F833E0C5F8D8
:103DF00008E007EBC3010839E9607A6047F83350FF
:103E0000CEF80C50831001219940914257D81142AD
:103E100006D120F003004900114200F10400FAD05D
:103E200007EBC0094D468646D5F80C80454508D1BC
:103E30001DE1002B80F22481D8F80C80454500F06C
:103E40001681D8F8042022F00302931B0F2BF0DD1B
:103E50002046D8E9025408EB060146F00106C8F8EE
:103E60000460EC60A56043F00104C7E90411C1E9F6
:103E700002CC4C6048F8023000F0E0FA08F1080586
:103E800002E00C2323600025284603B0BDE8F08F34
:103E90004FF4007340204FF03F0C73E7D3689A4211
:103EA00008BF02307FF440AF3D69DFF858C1654577
:103EB00082D17A688310012199409142A7D9BD68C7
:103EC0006B6823F003094E4503D8A9EB06030F2BBB
:103ED0007ADCDFF834B1474BDBF800201B68013295
:103EE000334405EB090A00F0338103F580530F33A7
:103EF00023F47F6828F00F084146204600F016FBA7
:103F0000411C024600F0F380824500F2EE803A4BFD
:103F1000196841441960084600F04E81DBF8001032
:103F2000019301311BBFA2EB0A0A5044CBF80020D9
:103F3000186012F0070B00F01781CBF108010A445A
:103F4000CBF5805190440831A1EB0801C1F30B0A75
:103F500051462046009200F0E9FA421CDDE90023B8
:103F600000F04F81801A00EB0A081968BA6048F027
:103F700001005144BD425060196000F02981B9F13F
:103F80000F0F40F227816868A9F10C0C2CF0070C88
:103F900000F0010040EA0C0068604FF0050E05EBF0
:103FA0000C00BCF10F0FC0E901EE00F23281506845
:103FB0001546124B1A688A4238BF1960104B1A68AE
:103FC0008A4238BF196094E0AA1943F0010346F011
:103FD00001066E602046BA60536000F02FFA083583
:103FE000284603B0BDE8F08FD9681A44A1E600BFA7
:103FF0009804002034150020041500202C15002002
:1040000030150020A0040020A0080020B2F5206F89
:104010004FEA522363D3142B00F2B78003F15C0103
:10402000C9005B3307EB010E7958AEF1080E8E45DF
:1040300000F091804B6823F00303934202D9896812
:104040008E45F7D1D1F80CE07A68C5E9021ECEF8AA
:104050000850CD60D6E6142B59D9542B00F29D8020
:10406000330B03F16F0003F16E0CC3008AE60EF10F
:10407000010E1EF0030F05F108057FF4D5AE51E0E7
:10408000424445465368D8F80C1043F0010353608E
:1040900055F8083F2046D9608B6000F0CFF9F3E671
:1040A000F00806F1080237E62A442046536843F038
:1040B00001035360083500F0C1F9E5E6A91920466F
:1040C00046F0010643F001046E60C7E90411C1E93E
:1040D00002CC4C60AB5000F0B1F90835D4E693093E
:1040E00003F13901C90038339CE7BD425FD0BD6898
:1040F000686820F003084645A8EB060302D80F2B9A
:104100003FF762AF204600F099F90025BCE603F1C5
:104110005C0003F15B0CC30034E659F808394B45E9
:1041200040F0968010F0030F00F1FF30F5D17B686E
:1041300023EA01037B60490099423FF6C0AE19B9FA
:10414000BDE649000EF1040E1942FAD0704667E64A
:1041500003F11008D0E69A104FF001087B6808FAC6
:1041600002F21A437A6070E702EB08014942C1F398
:104170000B0A51462046009200F0D8F9431CDDE9B5
:1041800000237FF4EFAEDA46EFE6542B25D8130B6D
:1041900003F16F01C9006E3344E7B3F5AA7F25D858
:1041A000F30B03F1780003F1770CC300EAE5294B28
:1041B000186840441860B1E6CAF30B0CBCF1000F5C
:1041C0007FF4ACAEBD68C84448F001006860F0E61A
:1041D0001546EEE60123536094E7B3F5AA7F23D892
:1041E000D30B03F17801C90077331BE740F2545237
:1041F000934223D8B30C03F17D0003F17C0CC30080
:10420000C0E5ABF1080BD844A8EB02084FF0000A58
:10421000ABE605F108012046009303F093FABD6870
:10422000009B68681968C4E640F254518B420BD871
:10423000930C03F17D01C9007C33F3E64FF47E73E8
:104240007F204FF07E0C9DE54FF47E717E23E9E6E2
:104250007B6870E704150020844641EA000313F0F0
:1042600003036DD1403A41D351F8043B40F8043B7D
:1042700051F8043B40F8043B51F8043B40F8043B40
:1042800051F8043B40F8043B51F8043B40F8043B30
:1042900051F8043B40F8043B51F8043B40F8043B20
:1042A00051F8043B40F8043B51F8043B40F8043B10
:1042B00051F8043B40F8043B51F8043B40F8043B00
:1042C00051F8043B40F8043B51F8043B40F8043BF0
:1042D00051F8043B40F8043B51F8043B40F8043BE0
:1042E00051F8043B40F8043B403ABDD2303211D380
:1042F00051F8043B40F8043B51F8043B40F8043BC0
:1043000051F8043B40F8043B51F8043B40F8043BAF
:10431000103AEDD20C3205D351F8043B40F8043B7F
:10432000043AF9D2043208D0D2071CBF11F8013B7D
:1043300000F8013B01D30B8803806046704700BF43
:10434000082A13D38B078DD010F003038AD0C3F152
:104350000403D21ADB071CBF11F8013B00F8013B34
:1043600080D331F8023B20F8023B7BE7043AD9D3F3
:10437000013A11F8013B00F8013BF9D20B780370C8
:104380004B7843708B78837060467047830730B5F5
:1043900048D0541E002A3FD0CAB2034601E0013C77
:1043A0003AD303F8012B9D07F9D1032C2DD9CDB2B7
:1043B00045EA05250F2C45EA054536D9A4F110023A
:1043C00022F00F0C03F1200EE6444FEA121C03F119
:1043D000100242E9045542E9025510327245F8D103
:1043E0000CF1010214F00C0F03EB021204F00F0C9D
:1043F00013D0ACF1040323F003030433134442F855
:10440000045B9342FBD10CF003042CB1CAB21C44F0
:1044100003F8012B9C42FBD130BD64461346002CAF
:10442000F4D1F9E703461446BFE71A46A446E0E78D
:10443000014803F031BC00BF3C150020014803F0E7
:104440002DBC00BF3C1500200FB400B5074983B058
:1044500004AB086853F8042B8168019300F000F95D
:1044600003B05DF804EB04B0704700BF68000020A3
:10447000024B01461868826804F000B96800002009
:1044800070B5054688B008460C4600F079F8224E13
:10449000AA6B059001214318CDE9066104A8022109
:1044A00004940393AC680190029122B3636E13F0FD
:1044B000010FB4F90C309AB201D1980525D59104B9
:1044C00006D4626E43F4005322F40052A381626664
:1044D000284601AA214603F03BFA636E002814BF68
:1044E0004FF0FF350A25DA0702D4A3899B0506D5CC
:1044F000284608B070BD284603F02CF8D6E7A06D1A
:1045000003F0CCFB284608B070BDA06D03F0C4FBDF
:10451000B4F90C309AB2D2E700B00010024B014659
:104520001868FFF7ADBF00BF6800002038B5074D21
:104530000022044608462A60FCF7CAFC431C00D04F
:1045400038BD2B68002BFBD0236038BD48150020F8
:10455000000000000000000000000000000000005B
:10456000000000000000000000000000000000004B
:10457000000000000000000000000000000000003B
:1045800090F800F06DE9024520F007016FF0000C93
:1045900010F0070491F820F040F049804FF000043B
:1045A0006FF00700D1E9002391F840F000F1080016
:1045B00082FA4CF2A4FA8CF283FA4CF3A2FA8CF34E
:1045C0004BBBD1E9022382FA4CF200F10800A4FAB5
:1045D0008CF283FA4CF3A2FA8CF3E3B9D1E9042309
:1045E00082FA4CF200F10800A4FA8CF283FA4CF340
:1045F000A2FA8CF37BB9D1E9062301F1200182FAFA
:104600004CF200F10800A4FA8CF283FA4CF3A2FAFF
:104610008CF3002BC6D0002A04BF04301A4612BA0D
:10462000B2FA82F2FDE8024500EBD2007047D1E910
:10463000002304F00305C4F100004FEAC50514F09F
:10464000040F91F840F00CFA05F562EA05021CBF70
:1046500063EA050362464FF00004A9E7000000008A
:104660002DE9F04F2DED0A8BD3B01C4609EE101A40
:10467000914609EE900A054603F006FB036817937E
:1046800018460D94FFF77CFF16901DB1AB6B002B05
:1046900000F0488219EE102A536EDB0740F1478183
:1046A000B2F90C309AB2960409D419EE101A43F4F8
:1046B00000538B819AB24B6E23F400534B6615075F
:1046C00040F1CC8019EE103A1B69002B00F0C68037
:1046D00002F01A030A2B00F0D2804D469FED9C7B1E
:1046E0002B78002429AACDE92744CDE91944CDE946
:1046F0001B448DED147B19EE909A129426929046ED
:1047000018940A94002B00F0B081AB4604E01BF82B
:10471000013F002B00F0CD80252BF8D1BBEB050627
:1047200040F0CB809BF80030002B00F09E810023EE
:104730004FF0FF329BF801708DF87B3009930BF13D
:10474000010B08929A462B2420210BF1010BA7F1B3
:1047500020035A2B00F20081DFE813F00A03FE0069
:10476000FE000503FE00FE00FE006A00FE00FE00E3
:1047700076029E02FE008102A802FE00A3025B00F8
:104780005B005B005B005B005B005B005B005B0051
:10479000FE00FE00FE00FE00FE00FE00FE008E0198
:1047A000FE001602ED018E018E018E01FE00FE005C
:1047B000FE00FE000003FE00FE004502FE00FE00BB
:1047C000FE002002FE00C202FE00FE009A07FE006C
:1047D000FE00FE00FE00FE00FE00FE00FE008E0158
:1047E000FE001602EF018E018E018E01E602EF013E
:1047F000E801FE00F302FE0086024702D402E8014F
:10480000FE0020027D007607FE00FE007A07FE0013
:104810007D00A7F1300300221BF8017B02EB82022E
:1048200003EB4202A7F13003092BF5D909928EE779
:10483000484603F029FA43681B931846FFF7A0FE89
:104840001C900646484603F01FFA836819932021FE
:10485000002E40F0EA869BF8007076E719EE101AF9
:1048600019EE900A19EE105A01F000FD002841F0EF
:104870002483AA8902F01A030A2B7FF42EAF19EEC3
:10488000101AB1F90E30002BFFF627AF4B6ED90787
:1048900002D4920541F1568119EE101A19EE900AD0
:1048A00023464A4653B0BDEC0A8BBDE8F04F01F0F9
:1048B0009DBCBBEB050600F0D880289B33442893B1
:1048C000279B0133072BC8E90056279305DC08F125
:1048D00008080A9B33440A9324E719EE101A26AA03
:1048E000484604F0DDF990B90DF1A408F1E719EE9E
:1048F000101A26AA484604F0D3F9002800F0A68032
:104900000C9B23B119EE900A194602F01BFF19EE19
:10491000102A536ED80740F1FA8093895A0601F1A4
:10492000D5820A9853B0BDEC0A8BBDE8F08FB2F97E
:104930000C309F059AB23FF5B6AE19EE105AA86D2D
:1049400003F0AAF9B5F90C309AB2ACE6AFF30080E7
:104950000000000000000000002F00F0868000230F
:104960008DF8E4708DF87B300122CDE90B2307929E
:10497000089310931393119339AD1AF002020E921B
:1049800002D0079A023207921AF084020F9205D1E0
:10499000099A0799561A002E00F36883289C8BB158
:1049A000279B0DF17B0201330134C8F80020072B4F
:1049B0004FF0010228942793C8F8042000F39F8346
:1049C00008F108080E9B83B1279B1FAA013302340C
:1049D000C8F80020072B4FF0020228942793C8F84C
:1049E000042000F3998308F108080F9B802B00F046
:1049F0006A82089B0B9A9E1A002E00F3AB821AF46F
:104A0000807F40F006820B9BC8F804301C44279B33
:104A1000C8F800500133072B2894279300F319831B
:104A200008F108081AF0040F05D0099B079A9D1A8F
:104A3000002D00F38583DDE9092307998A42ACBF85
:104A40009B185B180A93002C7FF451AF0023279327
:104A50000C9B1BB10C99484602F074FE0DF1A408A2
:104A60005D462B78002B7FF450AE289B002B41F045
:104A70001882002327934AE70D9B073323F007038F
:104A8000B3EC027B8DED147BDDE914120D9322F063
:104A900000430AEE101A0AEE903A4FF0FF32B0EEE1
:104AA0004A8AF0EE6A8AB74B51EC180B05F0A8FF62
:104AB000002840F0E884B34B51EC180B4FF0FF3264
:104AC00005F080FF002840F0DE84DDE914010022BB
:104AD000002305F06DFF002840F067879DF87B30CC
:104AE000A94DAA4A2AF0800A0321472FC8BF1546BC
:104AF00000220C9207910B9108921092139211923E
:104B0000002B3FF43AAF079A0132079235E79389B9
:104B100099053FF503AF19EE104A906D03F0BEF80A
:104B2000A389FBE6284602F015FDB3E59BF800706B
:104B30004AF0200A09E64AF0100A1AF0200F0D9BED
:104B400000F04084073323F007031A465B6852F8ED
:104B5000084B0D921E46002BC0F24384089B013384
:104B600000F0BC822AF08003079354EA060340F069
:104B7000B782089B002B40F0B882DDF81CA0002310
:104B800008930B9352AD1FE10D9A002352F8041BBA
:104B90008DF87B308DF8E4100D92E5E60D9C54F80D
:104BA000045B00268DF87B60002D00F09085089B4B
:104BB0005A1C00F051861A463146284603F0E0F8A8
:104BC0000C90002801F02C810C9B0896591B0B912E
:104BD00021EAE1719DF87B300D9407910C961096B7
:104BE000139611968CE74AF0100A1AF0200600F08E
:104BF000C9830D9B073323F007035E6853F8084B06
:104C00000D932AF480630793002300228DF87B2004
:104C1000089A551C00F0C080079921F0800A54EAD8
:104C2000060140F0B780002A40F00786002BA6D18D
:104C3000079B13F001030B9300F0148430238DF8CD
:104C400047310DF24715BFE00D9B53F8042B099235
:104C5000002A80F2D583099A0D93524209929BF85B
:104C600000704AF0040A70E51AF0200F40F0D28478
:104C70001AF0100F40F0E7851AF0400F40F0A986B7
:104C80001AF4007F00F0DF850D9B0A9953F8042B7E
:104C90000D9311705D46E4E69BF800708DF87B4043
:104CA00053E59BF800704AF0800A4EE55A4612F828
:104CB000017B2A2F01F06D82A7F13003092B934667
:104CC00098BF002201F2E9801BF8017B02EB82020F
:104CD00003EB4202A7F13003092BF5D9089236E520
:104CE0004AF010030793079B13F0200600F0598346
:104CF0000D9B073323F007035E6853F8084B0D93B1
:104D0000012382E70D9B53F8044B0D9330234AF0A7
:104D1000020278278DF87C301D4B189307928DF88E
:104D20007D700026022370E79BF80070682F03BF98
:104D30009BF801704AF4007A0BF1010B4AF0400A2B
:104D400003E59BF800706C2F03BF9BF801704AF0DD
:104D5000200A0BF1010B4AF0100AF6E49BF80070F0
:104D60004AF0080AF1E49BF800704AF0010AECE40A
:104D70009DF87B30002B7FF46EAD9BF800708DF8B2
:104D80007B10E2E4FFFFEF7F28B700102CB7001084
:104D900038B70010CDF81CA0012B00F0A181022B28
:104DA00052AD20D1189A04F00F032409D35C05F802
:104DB000013D44EA0674360954EA0603F3D152ABC6
:104DC0005B1BDDF81CA00B9308990B989DF87B30BA
:104DD00081424FF00002B8BF01460C920791109239
:104DE000139211928CE604F00703E40844EA467437
:104DF000F608303354EA06012A4605F8013DF2D19F
:104E00000799CC0700F1758252AB5B1B8A460B9366
:104E1000DAE7652F40F3D780DDE914010022002393
:104E200005F0BCFD002800F0C681279BC14AC8F8E8
:104E30000020013301340122072B28942793C8F85E
:104E4000042000F3DE8408F10808209B129A9342A4
:104E500080F2D182169B179A1C44C8E90023279B35
:104E600028940133072B279300F3238408F10808C3
:104E7000129B5D1E002D7FF7D5AD102D279B41F3B2
:104E80006781AD4F0E972246102619EE104A05E0B5
:104E900008F10808103D102D40F3C1840133103291
:104EA000072BC8E90076CDE92732F1DD26AA214695
:104EB000484603F0F5FE00287FF422ADDDE92732F5
:104EC0000DF1A408E6E7099B079A9E1A002E7FF7CA
:104ED00090AD102E279B41F33C8097490F952246B9
:104EE00019EE105A0E910C4604E0103E102E08F1F7
:104EF000080819DD013310321021072BCDE92732C4
:104F0000C8F80040C8F80410EFDD26AA2946484634
:104F10000DF1A40803F0C4FE00287FF4F1AC103EAC
:104F2000102EDDE92732E5DC0F9D144601330E9A81
:104F3000C8F800203444072BCDE92734C8F80460B2
:104F400000F3A983089B0B9A9E1A002E08F108080B
:104F50007FF755AD102E279B40F30F8576480E90B6
:104F60004246214619EE108A044604E0103E102EF7
:104F700002F1080216DD013310311020072BCDE9B4
:104F8000273114605060F1DD26AA4146484603F0FF
:104F900087FE00287FF4B4AC103E102EDDE92731E7
:104FA00029AAE8DC90460C4601330E9AC8F8002086
:104FB0003444072BCDE92734C8F8046000F3D481CA
:104FC00008F108081BE5129B012B40F37381279E13
:104FD000C8F80050013601340123072E2894279683
:104FE000C8F8043000F3968308F10808169B179A56
:104FF00001361C44072EC8E90023CDE9276400F3DD
:10500000978308F10808DDE914010022002305F068
:10501000C5FC002840F07B81129B0136013B013525
:105020001C44072EC8F800502796C8F8043028946E
:1050300000F3518108F108081A9BC8F804300136C2
:105040001C44072E22ABCDE92764C8F800307FF757
:10505000E7AC19EE101A26AA484603F021FE0028F4
:105060007FF44EAC289C0DF1A408DBE4102EDDE9A2
:10507000273222DD1D95102419EE105A04E0103E4F
:10508000102E08F1080817DD01332C491032072BC8
:10509000C8E90014CDE92732F1DD26AA29464846A1
:1050A0000DF1A40803F0FCFD00287FF429AC103EAC
:1050B000102EDDE92732E7DC1D9DC8F804600133BE
:1050C000B418072B1D4AC8F80020CDE9273400F397
:1050D0007D839DF87B3008F1080860E4CDF81CA0C2
:1050E0000A2C76F1000380F0318330340123DDF89F
:1050F0001CA08DF847410B930DF2471564E619EE9D
:10510000101A26AA484603F0CBFD00287FF4F8AB1E
:10511000289C0DF1A40855E419EE101A26AA484659
:1051200003F0BEFD00287FF4EBAB289C0DF1A40832
:105130005BE400BF68B700107CB700106CB70010CC
:10514000102D279B20DD19EE107A102604E0103D6B
:10515000102D08F1080817DD0133AC4A1034072B75
:10516000C8E90026CDE92734F1DD26AA39464846AC
:105170000DF1A40803F094FD00287FF4C1AB103DAD
:10518000102DDDE92734E7DC0133A04AC8F80450CC
:105190002C44072BCDE92734C8F800207FF74BAC0F
:1051A00019EE101A26AA484603F07AFD00287FF46B
:1051B000A7AB289C3FE4209A002A40F32B81DDE92D
:1051C00011739F42A8BF1F46002F0BDD279B0133A1
:1051D0003C44072BC8E900572894279300F3D18556
:1051E00008F10808119E002FA8BFF61B002E00F33F
:1051F0004483119B1AF4806F2B440B9340F0DF849F
:10520000209B129A934203DB1AF0010F00F0D28325
:10521000169A17991444C8E90012279A2894013263
:10522000072A279200F3BB8508F10808129A0B9908
:10523000AE18761AD51AAE42A8BF2E46002E0DDD46
:10524000279BC8F8001001333444072BC8F80460CA
:105250002894279300F3068608F10808002EA8BFBB
:10526000AD1B002D7FF7DEAB102D279B40F3708721
:10527000674F0E972246102619EE104A05E008F1F6
:105280000808103D102D40F3CA8201331032072B5D
:10529000C8E90076CDE92732F1DD26AA2146484645
:1052A00003F0FEFC00287FF42BABDDE927320DF183
:1052B000A408E6E71AF0010F7FF489AE279EC8F82C
:1052C0000050013601340123072E28942796C8F890
:1052D00004307FF7AFAE19EE101A26AA484603F045
:1052E000DFFC00287FF40CABDDE927640DF1A40896
:1052F000A2E6302B3FF463AD3023023A05F8013CBF
:1053000052AB9B1ADDF81CA00B9315465CE5129B73
:105310005D1E002D7FF790AE102D40F31F873C4A95
:10532000CDF820A0234619EE10AA0E92102714469D
:1053300005E008F10808103D102D40F3E382013626
:105340001033072EC8E90047CDE92763F1DD26AA0F
:105350005146484603F0A4FC00287FF4D1AADDE9B9
:1053600027630DF1A408E6E719EE101A26AA4846AD
:1053700003F096FC00287FF4C3AA289C0DF1A40832
:10538000FFF73DBB1AF0100340F03E811AF04002D7
:1053900000F0C8820D9A52F8044B0D921E46A4B23A
:1053A0002FE4079B13F0100366D1079A12F0400216
:1053B00000F0C6820D9A52F8044B0D921E46A4B21C
:1053C000012322E453F8044B0D931AF0100F4FD130
:1053D0001AF0400F48D044F3C036334624B2FFF7EA
:1053E000BABB2D2364428DF87B3066EB4606CDF8C0
:1053F0001CA001230CE41AF0010F3FF413AB29E5C4
:105400009BF800700D93FFF7A0B900BF6CB70010B8
:105410007CB70010279BB649C8F80010013301344F
:105420000121072B28942793C8F8041000F38084E7
:1054300008F10808002A40F04682129A0AF0010397
:1054400013433FF4EFAA169B179A1C44C8E90023A4
:10545000279B28940133072B279300F3648308F1DB
:10546000080841E252ADAFE41AF4007F40F0AB828D
:10547000E6173346FFF76FBB0D9B53F8044B0D93B4
:105480000123FFF7C2BBDDE9140102460B4605F01C
:10549000B7FA002840F02C86612F00F07D85412F5F
:1054A00000F0A082089B013327F02003079300F04F
:1054B000C285472B00F0A985DDE914014AF480720A
:1054C00000290B924FF00003C0F2418441EC1B0B0A
:1054D0000E930C93079B462B00F07084452B00F035
:1054E0002285089B019324AB049321AB039320AB4B
:1054F000029302230093484653EC1B2B00F0C4FF99
:10550000079B472B054640F05B861AF0010F564675
:10551000DDF82CA040F0DF84249B5B1B1293079BDB
:10552000472B00F01683079B462B00F08584209BB9
:105530001193119B079A013B412A209300F0E685C5
:10554000FAB20021002BB8BF119B8DF88820BABF9A
:10555000C3F101032D222B22092B8DF8892040F362
:105560006E850DF19704DFF898C1224610468CFB3A
:105570000321DA17C2EBA10202EB8201A3EB410186
:10558000303100F8011C19466329134600F1FF323F
:10559000ECDC3033D9B2831E9C4202F8011C40F28D
:1055A0000B8613460DF18A0201E013F8011B02F885
:1055B000011B9C42F9D10DF199030DF18A021B1ACE
:1055C000134422AA9B1A1A93129B1A9A012B1A446B
:1055D0000B9240F3AF850B9B169A13440B930B9AD7
:1055E000002326F4806622EAE27246F4807A109361
:1055F0000792139311930E9B002B40F0D9820893CE
:105600009DF87B30FFF77CBA0D9B53F8044B0D934C
:10561000FFF7F7BA0D9B0A9853F8041B0D93C217B6
:10562000C1E900025D46FFF71CBA199B002B3FF44D
:1056300012A9199B1B78002B3FF40DA99BF8007051
:105640004AF4806AFFF781B8CDF81CA0FFF74BBB86
:10565000284B18931AF0200654D00D9B073323F0E3
:1056600007035E6853F8084B0D931AF0010F09D039
:1056700054EA060306D030238DF87D704AF0020A02
:105680008DF87C302AF4806307930223FFF7BDBABC
:10569000194B1893DEE719EE101A26AA484603F0B4
:1056A000FFFA00287FF42CA9289C0DF1A408FFF72D
:1056B000A0B919EE101A26AA484603F0F1FA0028FC
:1056C0007FF41EA9289C0DF1A408FFF7D1BB089A0E
:1056D0000C95062A294628BF062208952B460792D4
:1056E000064D0D940B92109113911191FFF708BA8A
:1056F00068B7001038B700104CB7001060B7001042
:10570000676666661AF0100370D00D9B53F8044B61
:105710000D93AAE719EE101A26AA484603F0C0FA1C
:1057200000287FF4EDA8DDE927640DF1A4085DE40D
:1057300019EE101A26AA484603F0B2FA00287FF4A0
:10574000DFA8DDE927640DF1A4085CE4079B0022D3
:1057500003F48063CDE90B7808EE109A0DF5A47A76
:10576000DDF86490174698460CE000232046314649
:105770000A2205F083F90A2C76F100031CD30446B3
:105780000E46AA4620460A220023314605F076F945
:1057900030320AF1FF3501370AF8012CB8F1000F59
:1057A000E3D099F800309F42DFD1FF2FDDD00A2CE3
:1057B00076F1000380F0E580CDF864901297DDF873
:1057C00030800B9F18EE109AFFF7F9BA19EE101AF5
:1057D00026AA484603F064FA00287FF491A89DF8B1
:1057E0007B30289C0DF1A408FFF7D9B81AF04002CD
:1057F00000F0B6800D9A52F8044B0D921E46A4B2EA
:1058000033E719EE101A26AA484603F049FA002891
:105810007FF476A8289C0DF1A408FFF716BB144668
:1058200001330E9AC8F800202C44072BC8F8045006
:10583000CDE927347FF7F4A80BE4012BCDF81CA0A9
:105840007FF4ADAA51E40D9B0A9953F8042B5D46F1
:1058500011600D93FFF705B9284608960D94FEF7E1
:105860008FFE20EAE0719DF87B300B9007910C963B
:10587000109613961196FFF743B9102E279B40F30D
:105880009484BA480E904246214619EE108A102799
:10589000044604E00832103E102E40F337820133F4
:1058A0001031072BC2E90047CDE92731F2DD26AAE6
:1058B0004146484603F0F4F900287FF421A8DDE9C9
:1058C000273129AAE7E7169B17991C44C8E900135A
:1058D000279B28940133072B279300F3248108F199
:1058E0000808002AC0F2FA82129AC8F80050013360
:1058F0001444072BCDE92734C8F804207FF790A87B
:10590000FFF7A7BBDDF820A01C4601360E9BC8F8A8
:1059100000302C44072ECDE92764C8F804507FF7E7
:1059200089ABD8E40D9B1AF4007614BF53F8044BEE
:1059300053F8044B0D931CBF1646E4B2FFF761B950
:10594000079B13F400760D9B14BF53F8044B53F8D8
:10595000044B0D931CBF1646E4B20123FFF755B963
:105960000D9B1AF4007614BF53F8044B53F8044B04
:105970000D931CBF1646E4B277E67C4A0E92FFF701
:1059800013BB1C9B1B99ED1A1A46284603F01AF903
:1059900099F801300BB109F10109204631460A227C
:1059A0000023002705F06AF8E9E62D238DF87B3007
:1059B000FFF796B8129A0B99AE18761AD51AAE421E
:1059C000A8BF2E464AE444F3C016334664B2FFF73C
:1059D000C2B80D9B0A9953F8042B0D9311805D46B4
:1059E000FFF73FB830238DF87C3058238DF87D3099
:1059F000089B632B4AF0020400F3D38200230C932C
:105A000039ADDDE914124AF481730B93002A27F0B3
:105A10002003A2460793C0F29B81002342EC1B1B8C
:105A20000E93612F00F04C83412F7FF453AD20AAD9
:105A300051EC1B0B03F048F800224FF07F5304F0A9
:105A400045FD02460B4643EC182B0022002304F0D0
:105A5000A5FF08B101232093454B0F93089B1D958B
:105A6000CDE9107BCDE912A80CEE109ADDF83CB020
:105A700059EC188B5E1E2C4605E000220023013EE7
:105A800004F08CFFE0B93B4B00224046494604F04D
:105A90001DFD8946804604F0C9FF054604F0ACFCB4
:105AA0000B4602464946404604F058FB1BF80530B9
:105AB000A24604F8013B731C374680468946DCD178
:105AC00049EC188B2C4BDDF84C8051EC180B002264
:105AD0003E461CEE109ADDE9107BCDF840A01195F2
