:020000041000EA
:100000000000102005060010CD030010DD030010D5
:1000100045060010470600104906001000000000C9
:100020000000000000000000000000004B0600106F
:100030004D060010000000004F0600105106001091
:100040005506001057060010590600105B060010F8
:100050005D0600105F0600106106001063060010C8
:100060006506001067060010690600106B06001098
:100070006D0600106F060010710600107306001068
:100080007506001077060010790600107B06001038
:100090007D0600107F060010810600108306001008
:1000A0008506001087060010330300108B06001031
:1000B0008D0600108F0600109106001093060010A8
:1000C0009506001097060010990600109B06001078
:1000D0009D0600109F060010A1060010A306001048
:1000E000A5060010A7060010A9060010AB06001018
:1000F000AD060010AF060010B1060010B3060010E8
:10010000B5060010B7060010B9060010BB060010B7
:10011000BD060010BF06001029030010C306001022
:10012000C5060010C7060010C9060010CB06001057
:10013000CD060010CF060010D1060010D306001027
:10014000D5060010D7060010D9060010DB060010F7
:10015000DD060010DF060010E1060010E3060010C7
:10016000E5060010E7060010E9060010EB06001097
:10017000ED060010EF060010F1060010F306001067
:10018000F5060010F7060010F9060010FB06001037
:10019000FD060010FF060010010700100307001005
:1001A0000507001007070010090700100B070010D3
:1001B0000D0700100F0700101107001013070010A3
:1001C0001507001017070010190700101B07001073
:1001D0001D0700101F070010210700102307001043
:1001E0002507001027070010290700102B07001013
:1001F0002D0700102F0700103107001033070010E3
:1002000010B5054C237833B9044B13B10448AFF350
:1002100000800123237010BD240A0020000000008C
:100220004099001008B5034B1BB103490348AFF3D5
:10023000008008BD00000000280A0020409900103E
:1002400038B50D4802F0C4FB00240B4802F0C0FB97
:10025000022000F021F9094D284601F0B1FE0220EC
:1002600000F03CF9284601F0ABFE651C214604482D
:1002700002F04CFB2C46E8E7CC91001020A10700CF
:10028000DC91001008B5C9B200F070FF08BD10B5D0
:1002900088B00C468DF8002000228DF801200190D6
:1002A00002928DF80C3004910592069207926846EE
:1002B00000F06EFFA04202D1002008B010BD6FF028
:1002C0000800FAE710B588B00C468DF8002000222F
:1002D0008DF80120019202908DF80C300491059266
:1002E00006920792684600F053FFA04202D1002018
:1002F00008B010BD6FF00800FAE7000010B505491E
:100300000B2000F019FF044608B1204610BD00F094
:100310004BFFFAE700093D0008B50346014802F02B
:10032000F5FAFEE7E891001008B5012000F08CFC1A
:1003300008BD08B5022000F087FC08BD08B5022200
:100340004FF4E131024B186801F0D0FB08BD00BF4B
:100350000000002010B584B0194B6C460FCB84E828
:100360000F00002000F0D6FA012000F0D3FA02209E
:1003700000F0D0FA402000F0CDFA204600F0EEF870
:10038000034610B1184604B010BDFFF7D7FF031E97
:10039000F8DB00F0F7F868B90121002000F022F93D
:1003A00000F0BEF803460028ECD09F22054906481D
:1003B000FFF7B2FF982203490348FFF7ADFF00BFE4
:1003C00070920010049200104892001008B5024884
:1003D00002F0FEFAFEE700BF5092001008B5024896
:1003E00002F0F6FAFEE700BF5C9200104FF0FF301B
:1003F00070474FF0FF3070474FF0FF3070474FF0BD
:10040000FF3070472DE9F041D8B90C4690460546BB
:10041000074602E001340137013545450EDA0C4E3E
:10042000304601F0C5FBC1B22170304601F0C4FB7B
:1004300023780D2BEED10A23237001373846BDE80F
:10044000F08101F089FE092303604FF0FF37F5E7E3
:100450000020044070B50138012813D80C46164618
:10046000002505E014F8011B0A4801F0A5FB013541
:10047000B5420DDA23780A2BF4D10D21054801F09D
:100480009BFBEFE701F068FE092303604FF0FF36A6
:10049000304670BD0020044010B504460B4B1B686D
:1004A00083420CD90A4A04EB440302EB830304EBB6
:1004B0004404596852F8240000F098FB10BD2E2225
:1004C00004490548FFF728FFECE700BFA49200109D
:1004D00080920010B8920010EC92001010B5044603
:1004E0000B4B1B6883420CD90A4A04EB440302EB12
:1004F000830304EB4404596852F8240000F08CFB99
:1005000010BD392204490548FFF706FFECE700BF9C
:10051000A492001080920010B8920010EC9200108B
:1005200038B50024254600E001340A4B1B68A3427D
:100530000ED92046FFF7D2FF04EB4403064800EB38
:10054000830000F0B9FB0028EED06FF00705EBE761
:10055000284638BDA49200108092001058B110B403
:10056000064C0FC884E80F00054B01221A700020CA
:100570005DF8044B70476FF05F007047400A002041
:10058000500A002070B50024264600E00134124BCA
:100590001D68A5420BD904EB4403104800EB83000F
:1005A00000F08AFB0028F1D06FF00706EEE70C4B55
:1005B0001B680BB100230AE0284601F0F7FD084B49
:1005C0001860F7E7064A12680021D15401339D42B2
:1005D000F8D8304670BD00BFA8920010AC92001051
:1005E000540A0020054B1B68834204D9044B1B6846
:1005F0001954002070476FF002007047A892001055
:10060000540A00204B4885464B48804780B94B49E7
:100610004B4A4C4B9B1A03DD043BC858D050FBDCC3
:1006200049494A4A00209142BCBF41F8040BFAE70D
:10063000474880474748804747488047FFF7FEFFC5
:10064000FEE7FEE7FEE7FEE7FEE7FEE7FEE7FEE782
:10065000FEE7FEE7FEE7FEE7FEE7FEE7FEE7FEE772
:10066000FEE7FEE7FEE7FEE7FEE7FEE7FEE7FEE762
:10067000FEE7FEE7FEE7FEE7FEE7FEE7FEE7FEE752
:10068000FEE7FEE7FEE7FEE7FEE7FEE7FEE7FEE742
:10069000FEE7FEE7FEE7FEE7FEE7FEE7FEE7FEE732
:1006A000FEE7FEE7FEE7FEE7FEE7FEE7FEE7FEE722
:1006B000FEE7FEE7FEE7FEE7FEE7FEE7FEE7FEE712
:1006C000FEE7FEE7FEE7FEE7FEE7FEE7FEE7FEE702
:1006D000FEE7FEE7FEE7FEE7FEE7FEE7FEE7FEE7F2
:1006E000FEE7FEE7FEE7FEE7FEE7FEE7FEE7FEE7E2
:1006F000FEE7FEE7FEE7FEE7FEE7FEE7FEE7FEE7D2
:10070000FEE7FEE7FEE7FEE7FEE7FEE7FEE7FEE7C1
:10071000FEE7FEE7FEE7FEE7FEE7FEE7FEE7FEE7B1
:10072000FEE7FEE7FEE7FEE7FEE7FEE7FEE7FEE7A1
:10073000FEE7FEE700001020290800104C99001089
:1007400000000020240A0020240A0020C40F0020FA
:1007500039080010652100104102001008B5034659
:100760000B4A126842B10A4A10680344094A93428C
:1007700006D8074A136008BD054A07491160F2E729
:1007800001F0EAFC0C2303604FF0FF30F3E700BFF9
:10079000580A002000F00F20C80F00206FF0100052
:1007A00070476FF0100070474FF080439B6803F470
:1007B0006063B3F5006F22D013D8B3F5806F20D0FB
:1007C000B3F5C06F02D14FF4FA5301E0DBB9114B1E
:1007D0004FF080429268C2F38212D3400E4A1360F7
:1007E0007047B3F5406F10D0B3F5606F01D10B4B7C
:1007F000EEE7B3F5206F0BD14FF4E103E8E7084BC8
:10080000E6E7084BE4E7064BE2E74FF40043DFE797
:10081000034BDDE7008793035C0A00200080BB00E8
:10082000000E27070048E8010020704770470020AD
:10083000704700207047704730B583B000BF002379
:10084000019302E0019B01330193019A1B4B9A42F1
:10085000F8DD1B4C1B4BA3604FF080430122C3F813
:10086000002C4022C3F80C240022C3F8002C164DA3
:10087000284600F030FC284600F031FC284600F005
:100880002AFCD4F8883043F47003C4F88830BFF3EE
:100890004F8FBFF36F8F042000F0C4F8FFF784FF81
:1008A000FFF7C9FFFFF7C2FFFFF7C3FFFFF752FDD6
:1008B000FFF7BDFF62B603B030BD00BFFEFF03000F
:1008C00000ED00E00000001000A002403F2809D920
:1008D0004038C0B20E49CB68012202FA00F018433A
:1008E000C86070471F280AD92038C0B24FF0804135
:1008F0008B6C012202FA00F01843886470474FF0B5
:1009000080414B6A012202FA00F0184348627047A6
:10091000000008403F280AD94038C0B21049CB68CF
:10092000012202FA00F023EA0000C86070471F2885
:100930000BD92038C0B24FF080418B6C012202FAF3
:1009400000F023EA0000886470474FF080414B6A52
:10095000012202FA00F023EA00004862704700BF5B
:100960000000084010B5044600214FF47A7001F0F1
:10097000EBFA4FF080439B682342FAD0002010BD71
:1009800008B5072849D8DFE800F01A482E29040FD7
:100990003D254FF08042936843F4002393604FF06D
:1009A0000060FFF7DFFF08BD4FF08042936843F41B
:1009B000801393604FF08050FFF7D4FFF3E74FF0C0
:1009C0008042936843F4802393604FF08060FFF788
:1009D000C9FFE8E7124800F06FF9E4E74FF0005074
:1009E000FFF7C0FFDFE74FF080435A6F42F011027C
:1009F0005A679A6842F480329A604FF08070FFF72D
:100A0000B1FFD0E74FF08042936843F40033936026
:100A10004FF00070FFF7A6FFC5E76FF00200C2E7D6
:100A20007094001038B54FF080439C6804F4606403
:100A3000072800F28A80DFE800F021884F62043244
:100A40006B454FF080439B6813F4002F12D04FF09A
:100A50008042936823F4606343F4006393604FF42F
:100A60000050FFF77FFF0546002864D1FFF79CFE8A
:100A7000284638BD0420FFF783FFE8E74FF08043A6
:100A80009B6813F4802F06D04FF08042936823F4C4
:100A900060639360E3E70020FFF772FFF4E74FF035
:100AA00080439B6813F4801F08D04FF08042936806
:100AB00023F4606343F420639360D0E70520FFF7DD
:100AC0005FFFF2E70720FFF75BFF4FF0804293687C
:100AD00043F460639360C2E74FF080439B6813F474
:100AE000803F08D04FF08042936823F4606343F462
:100AF00080639360B3E70220FFF742FFF2E74FF015
:100B00008042936823F4606343F4C0639360A6E774
:100B10004FF080439B6813F4003F08D04FF08042B1
:100B2000936823F4606343F44063936097E706207F
:100B3000FFF726FFF2E74FF08042936823F46063EB
:100B4000234393606FF0090592E76FF002058FE78A
:100B50003F280BD94038C0B2012303FA00F0114BF3
:100B60009860104B9B681842FBD170471F280DD925
:100B70002038C0B2012303FA00F04FF080435864DC
:100B80004FF080435B6C1842FAD17047012303FA9F
:100B900000F04FF0804358604FF080435B6818428C
:100BA000FAD170470000084010B5044610F0010F5C
:100BB0000CD114F0020F0DD114F0040F0ED114F06B
:100BC000080F0FD1204601F03BFA10BD0020FFF7BF
:100BD000A1FEEEE70120FFF79DFEEDE70220FFF703
:100BE00099FEECE74020FFF795FEEBE708B5084BD0
:100BF000984202D000F0B8F908BD0648036A01F037
:100C00000102C90001F0100111430B430362F3E735
:100C100000C00040006C004008B5094B984202D06B
:100C200000F0A4F908BD0748036A01F00102C900F9
:100C300001F01001114323EA01030362F2E700BF50
:100C400000C00040006C004008B501F019FA08BD72
:100C500008B5064B984202D000F08AF908BD01F0B1
:100C60000301A3F5B0435962F8E700BF00C000409C
:100C700008B5064B984202D000F07CF908BDA3F5F8
:100C8000B043586A00F00300F8E700BF00C000401E
:100C900008B5044B984202D000F06EF908BD6FF021
:100CA0001000FBE700C0004008B500F0C8F908BD1F
:100CB00008B501F033FA08BD70B504460568A74BC6
:100CC0009D4229D003F580539D4227D003F58053E0
:100CD0009D4225D003F5EC2303F580639D4221D08E
:100CE0009F4B9D4240F02E8104260120B040FFF72B
:100CF0005BFFFFF7DDFF012800F02781032E13DDE6
:100D0000032E19DD237A012B40D0022B27D0002B94
:100D100054D06FF0100070BD0026E6E70126E4E72E
:100D20000226E2E70326E0E76268A17A2846FFF799
:100D3000AFFF0028E4D0EEE76268217A284600F091
:100D40003AF90028E7D1032E00F39E80637A042B42
:100D500000F2FD80DFE803F04B668756770081499B
:100D6000086A63685A0002F002021B0103F02003C4
:100D7000134303430B6288686268530003F0020365
:100D8000C2F34002134303438B60DCE77549086AF2
:100D900063685A0002F002021B0103F020031343B0
:100DA00003430B6288686268530003F00203C2F3D6
:100DB0004002134320EA03038B60C4E76949086AD1
:100DC00063685A0002F002021B0103F02003134380
:100DD00020EA03030B6288686268530003F0020391
:100DE000C2F34002134320EA03038B60ABE72B6E90
:100DF000626823EA02032B666B6E626823EA0203D1
:100E00006B6655E02B6E626813432B666B6E6268EF
:100E100023EA02036B66D5F8B83062681343C5F85D
:100E2000B83045E02B6E626813432B666B6E6268C8
:100E300023EA02036B66D5F8B830626823EA02033E
:100E4000C5F8B83034E02B6E626823EA02032B66E3
:100E50006B6E626813436B66D5F8B83062681343F3
:100E6000C5F8B83024E02B6E626823EA02032B66D3
:100E70006B6E626813436B66D5F8B830626823EA1C
:100E80000203C5F8B83013E0637A042B62D8DFE8B8
:100E900003F00314341434003248016A63689A0082
:100EA00002F004025B0103F0400313430B430362AF
:100EB000237A002B40D100202DE72A490E6A63686F
:100EC0005A0002F00202180100F0200002439800CC
:100ED00000F004005B0103F040030343134326EAE0
:100EE00003030B620A6A636803F00100DB0003F08E
:100EF0001003034313430B62DAE71A4E306A636848
:100F00005A0002F00202190101F020010A4399007F
:100F100001F004014FEA431C0CF0400C41EA0C01C3
:100F20000A4303F00101DB0003F010030B431343FA
:100F300020EA03033362BBE76268E17A2846FFF7E1
:100F4000B3FEE8E66FF00200E5E60020E3E66FF0AE
:100F50000200E0E66FF00200DDE600BF0080004026
:100F600000C00040006C0040C161704701627047E2
:100F700081647047006C704770B505460C46164694
:100F8000FFF796FE012814D024B1012C0AD06FF08F
:100F9000020070BDD5F8C02022EA0602C5F8C020C4
:100FA0000020F6E7D5F8C0203243C5F8C020002065
:100FB000EFE70020EDE770B504460E461546FFF753
:100FC00077FE012836D0236B2B4323636560052E03
:100FD00032D8DFE806F0030B131A2128656165603B
:100FE0002567E567C4F88850002024E02561656026
:100FF0002567E567C4F8885000201CE0C4F88850D5
:10100000E5672567A560002015E0C4F88850E5670E
:10101000E566A56000200EE0C4F88850A567256746
:10102000A560002007E0C4F88850A567E566A560C4
:10103000002000E0002070BD6FF00200FBE770B5FB
:1010400004460D461646FFF733FE012811D0032D46
:1010500034D8DFE805F002101C28D4F8B03023EAB9
:101060000603C4F8B030D4F8B42022EA0606C4F867
:10107000B460002070BDD4F8B0303343C4F8B03051
:10108000D4F8B42022EA0606C4F8B460F1E7D4F834
:10109000B03023EA0603C4F8B030D4F8B4201643C5
:1010A000C4F8B460E5E7D4F8B0303343C4F8B030E6
:1010B000D4F8B4201643C4F8B460DAE7D4F8B030FA
:1010C00023EA0603C4F8B030D4F8B43023EA0606A5
:1010D000C4F8B460CDE708B500F00AF808BD08B55B
:1010E00000F022F808BDD0F8000100F4803070470D
:1010F00010B50446D0F8003123F00103C0F80031E8
:101100000123C0F800372046FFF7EDFF0028FAD092
:10111000D4F8003143F00103C4F800312046FFF752
:10112000E2FF0028FAD010BDD0F8003123F001030F
:10113000C0F800317047000038B504460D461E2047
:10114000FFF7E8FB1F20FFF7E5FB0548FFF7B4FDBD
:101150002B4622460349044800F09EF938BD00BFE3
:101160007C940010006002400070024000B583B023
:1011700003460091034A0449044800F0DFF903B034
:101180005DF804FB00C00B400060024000700240AC
:1011900008B502460249034800F02AFA08BD00BF1C
:1011A00000C00B400070024008B5024800F0BCF9D6
:1011B00008BD00BF0070024010B48446002002E069
:1011C0000C7914540130DCF80C4014F07C5F01D031
:1011D0009842F5D15DF8044B70470B6823F0030388
:1011E00002F0030C43EA0C030B60036823F03003A6
:1011F000120102F030021A430260002070470B68AF
:1012000043F004030B60436823F0010343600020B4
:10121000704700000368C3F3033013F4704F00D12C
:1012200010204000024B1B68B3FBF0F0704700BF7A
:101230005C0A00200268C2F3032312F4706F00D12D
:101240001023034A106840085B00B0FBF3F07047BE
:101250005C0A002008B5034608463D4909689142EA
:1012600070D3B1FBF2F14FEA510C11F0010F02D033
:101270000CF1010200E0624660B10ABB016821F492
:10128000706141F480710160016821F4704141F4A2
:10129000805101606BB1002A32D11A6822F4704289
:1012A00042F480521A601A6822F4706242F480722A
:1012B0001A60002B42D1002847D0FFF7ABFF08BDD2
:1012C0000F2A08D9016841F470610160016841F496
:1012D00070410160DEE7016821F470614FEA0C2E75
:1012E0000EF4706E41EA0E010160016821F4704154
:1012F0004FEA023E1FFA8EFE41EA0E010160C9E785
:101300000F2A08D91A6842F470421A601A6842F427
:1013100070621A60CDE7196821F470414FEA0C3C05
:101320001FFA8CFC41EA0C011960196821F4706104
:10133000120202F470620A431A60BAE71846FFF715
:1013400079FFBCE76FF00200B9E76FF00200B6E783
:101350005C0A00200B6823F44033120402F440328C
:1013600013430B60036823F440331A4302600020E8
:1013700070470B6823F44023920402F44022134385
:101380000B60036823F440231A4302600020704777
:1013900038B505460C46022909D86B6823F440731A
:1013A000240204F440741C436C60002038BD40F2F9
:1013B000B63202490248FEF7AFFFEEE7FC9200109A
:1013C0004C93001038B505460C46022909D86B68C5
:1013D00023F44063A40204F440641C436C600020C6
:1013E00038BD40F2CA3202490248FEF795FFEEE7E7
:1013F000FC9200104C93001038B505460C460229AB
:1014000009D86B6823F44053240304F440541C436C
:101410006C60002038BD40F2DE3202490248FEF71F
:101420007BFFEEE7FC9200104C930010436823F41E
:1014300080334360002070470B6943F001030B6168
:10144000836843F080738360002070470B6923F04A
:1014500001030B61836823F0807383600020704771
:10146000436823F0FF030B43436000207047036889
:1014700023F0C0038901C9B20B430360704783683E
:1014800043F00403836000207047836843F0020345
:1014900083600020704700002DE9F04105460C46AE
:1014A000174698461F4B00261E605E608660FFF759
:1014B000E6FF2846FFF7E9FF21462846FFF7BCFF75
:1014C000424621462846FFF7C5FE324621462846B9
:1014D000FFF740FF324621462846FFF74AFFF9B2A0
:1014E0002046FFF7BDFF31462046FFF751FF31464A
:1014F0002046FFF767FF31462046FFF77DFF204675
:10150000FFF794FF324621462846FFF766FE032187
:101510002846FFF7ACFF21462846FFF770FE30460D
:10152000BDE8F081600A0020836843F00103836016
:1015300000207047806800F001007047F8B505464C
:101540000F4614461E46FFF7F5FF10B13EB90020C6
:10155000F8BDA42223492448FEF7DEFEF6E7012168
:10156000224800F059FD002839D1EA6812F4F85FEA
:10157000FBD139462846FFF769FF324608E00123D0
:1015800023804FF4704CA4F800C0A4F800C0203AA7
:10159000202AF4D8A2B11F2A1FD813019BB243F00E
:1015A00001039DF8181043EA41331BB29BB223801C
:1015B000102A02D94FF4704323804FF470432380E4
:1015C000EA6812F4F85FFBD139462846FFF734FF8A
:1015D000064800F02FFD3046BAE70123E1E76FF03F
:1015E0000500B5E7FC92001068930010600A002027
:1015F0002DE9F04F83B005460E4614465AB1A36854
:101600007BB12846FFF796FFA0B12369C3B900203C
:1016100003B0BDE8F08FF7226D496E48FEF77CFEFF
:10162000EDE76368002BECD1F82269496A48FEF7C0
:1016300073FEE6E7FB2266496848FEF76DFEE4E7C5
:101640000121674800F0E8FC0190002840F0BD80CF
:1016500000236361A361624A5360D4F80880B8EB49
:10166000030B18BF4FF0010B6768B7EB030A18BFF5
:101670004FF0010AD4F810903B4647469846B9F11E
:10168000000F00F099804AEA4B03227B43EA422391
:101690001BB29AB2B9F11F0F2BDDB9F1200F15D093
:1016A00042F008024946B9F1000F17DB4B11B1F5C2
:1016B000806F16D2190189B20A435B014B4513D0E2
:1016C0003280474A5360A9EB030959E0237842EA84
:1016D000433292B242F004022023F1E709F11F01E4
:1016E000E4E74FF48063E9E7217842EA413292B2BD
:1016F000E6E74FEA091242F0040212B2217842EA08
:10170000413212B213439BB23380354BC3F804907D
:10171000DDF8049034E0EB68C3F304230E2BFAD811
:10172000012A0BDD6168A2698B1858788B5C43EA4B
:1017300000233380A3690233A36129E06268A369AF
:10174000D35C43F470433380A3690133A3611FE08A
:10175000A168626901230A4431462846FFF72CFD3F
:101760000128F5D16369013363611D4B5B68012B6F
:1017700002DD013B1A4A5360194A5368013B53602A
:10178000174B5A68002A3FF47AAFB8F1000FC2D164
:10179000002FEAD0124B5B68012BD9DDA16862698A
:1017A00001230A4431462846FFF706FD0128F5D1FA
:1017B000636901336361CBE74746094800F03AFCAF
:1017C0000FB1A06924E7606922E76FF005001FE709
:1017D000FC9200108C9300109893001068930010F6
:1017E000600A002008B5174B984210D0164B98425B
:1017F00015D0164B98421AD0154B98421FD1442051
:10180000FFF7A6F94420FFF761F8002008BD0B2080
:10181000FFF79EF90920FFF759F80020F6E70C20A2
:10182000FFF796F90A20FFF751F80020EEE71C2099
:10183000FFF78EF92120FFF749F80020E6E76FF067
:101840000200E3E700200440003004400040044070
:1018500000140840244B98420BD003F58053984263
:1018600007D003F58053984203D003F575339842AF
:1018700031D11E4B984215D0036803F44033B3F5C1
:10188000803F26D0036813F4403F1ED0036803F462
:101890004033B3F5003F24D14FF4E1030069B3FBBB
:1018A000F0F07047036803F44033B3F5803F09D08C
:1018B000036813F4403F11D14FF4E1030069B3FB17
:1018C000F0F070474FF48033F8E7094B1B685B0872
:1018D000E4E7084BE2E76FF0020070476FF00200A8
:1018E00070476FF002007047002004400014084069
:1018F0005C0A00200048E80110B50446334B9842CA
:101900000BD003F58053984207D003F580539842DB
:1019100003D003F5753398424FD105236361032A41
:101920004ED8DFE802F0021D232C294B1A6852081A
:10193000B2FBF1F301FB132213B1B2EB510F00D94B
:10194000013323612046FFF785FF002807DD236868
:1019500043F400432360236813F4002FFBD010BD31
:101960001C4AB2FBF1F301FB1322E5E74FF4E1035C
:10197000B3FBF1F301FB03F2C2F5E102DCE7164B26
:101980009C4220D1236843F400132360B1F5165F15
:101990000DD04FF48033B3FBF1F301FB03F2C2F53A
:1019A0008032B1F5166F05D900206061C4E70723C6
:1019B0000022F6E701206061BEE76FF00200CEE78B
:1019C0006FF00200CBE76FF00200C8E70020044090
:1019D0005C0A00200048E8010014084008B500F047
:1019E0006BF908BD08B500F077F908BD08B500F03F
:1019F00085F908BD38B504460D46254B98420BD0F5
:101A000003F58053984207D003F58053984203D0E2
:101A100003F57533984234D11D4B9C4212D003F527
:101A200080539C420ED003F580539C420AD003F5AC
:101A300075339C4228D1022D19D0032D1CD06FF094
:101A400002000FE0012D05D0022D0CD035B16FF052
:101A5000020007E00220FEF793FF18B9294620464E
:101A600000F094F938BD0520FEF78AFFF5E7052060
:101A7000FEF786FF0025F0E70620FEF781FF01252F
:101A8000EBE76FF00200EDE76FF00200EAE700BF5E
:101A90000020044010B5044600F0C4F9124B9C42EB
:101AA00012D003F580539C420ED003F580539C4224
:101AB0000AD003F575339C4201D0FD200AE050B1F5
:101AC00001280AD1032005E0012808D0022808D007
:101AD00000B1F92010BD0220FCE7F920FAE701204F
:101AE000F8E70220F6E700BF0020044070B5044686
:101AF0000E46154600F09AF9C8B1214B9C421DD004
:101B0000204B9C4221D0204B9C4225D01F4B9C4215
:101B100033D11F48FFF7D0F84420FEF7FBFE2946DB
:101B20002046FFF767FF0346E8B1184670BD204620
:101B3000FFF758FE03460028DFD0F6E71548FFF709
:101B4000BBF80920FEF7E6FEE9E71348FFF7B4F813
:101B50000A20FEF7DFFEE2E71048FFF7ADF821208C
:101B6000FEF7D8FEDBE72046FFF794FF024631463A
:101B7000204600F031F80346D7E76FF00203D4E7C0
:101B8000002004400030044000400440001408409D
:101B9000AC9400108894001094940010A09400104D
:101BA00008B500F063F908BD08B500F068F908BD94
:101BB00008B500F0B9FA08BD08B500F0C0FA08BDD4
:101BC00008B500F066F908BD08B500F066F908BD73
:101BD00008B500F068F908BDF8B504460F4616468A
:101BE000314B984210D003F5805398420CD003F546
:101BF0008053984208D003F57533984204D086226A
:101C00002A492B48FEF788FB01212046FFF7E0FF19
:101C1000054608B12846F8BD08212046FFF7DEFE3C
:101C200005460028F6D100212046FFF7DFFE0546D5
:101C30000028EFD100212046FFF7D4FE05460028FA
:101C4000E8D1324639462046FFF756FE002828DB09
:101C5000154B9C4210D003F580539C421DD003F5D8
:101C600080539C421BD003F575339C4202D04FF049
:101C7000FF3202E0032200E000220E4902EB4203A1
:101C8000DC0001EBC3034FF0FF30D8609860002008
:101C90000851586018745861BCE70122EDE7022230
:101CA000EBE70546B6E700BF00200440CC930010E8
:101CB00018940010040000204B1F032B09D8990230
:101CC000036823F4406301F440611943016000207C
:101CD00070476FF00200704721B1012908D06FF002
:101CE00002007047036823F48053036000207047AC
:101CF000036843F48053036000207047042942D8EE
:101D0000DFE801F0030917253300036823F010030F
:101D1000036000207047036843F01003036003680A
:101D200023F020030360036823F0400303600020D6
:101D30007047036843F010030360036823F0200337
:101D40000360036843F040030360002070470368AA
:101D500043F010030360036843F02003036003684B
:101D600023F04003036000207047036843F0100332
:101D70000360036843F020030360036843F04003FB
:101D80000360002070476FF00200704738B50446CA
:101D90000D46032911D81F4B9C4217D003F58053E1
:101DA0009C4232D003F580539C4230D003F575330A
:101DB0009C4209D04FF0FF3209E040F2331216493D
:101DC0001648FEF7A9FAE6E7032200E00022144BCA
:101DD0009B5CC3B9226812F4004203D0236823F449
:101DE00000432360236823F440332D0405F4403579
:101DF0001D4325603AB1236843F400432360236800
:101E000013F4002FFBD0002038BD0122DFE70222AF
:101E1000DDE700BF00200440CC9300104894001080
:101E2000680A00200068C0F3014070470D4B9842DB
:101E300010D003F58053984210D003F58053984298
:101E40000ED003F57533984202D04FF0FF3202E016
:101E5000032200E00022044B985C70470122FAE75D
:101E60000222F8E700200440680A0020436813F0CB
:101E7000100F01D1006A70476FF00C007047436883
:101E800013F0800F02D10162002070476FF00B0049
:101E900070474068C0F3032070474068C0F30330C8
:101EA000C0F1080070474B1E072B08D8036823F0C9
:101EB0000F0301F00F0119430160002070476FF01C
:101EC0000200704738B54FF0E0239C691A6922F48C
:101ED000803218490A601B6913F0010F21D14FF0BD
:101EE000E0236FF07F445C619C6105221A614FF032
:101EF0008075114B1968114A0023A0FB010106F0FF
:101F0000E3FFB0FBF5F30E4A136005FB13008442B8
:101F10000CD8136801331360201A2844094B186049
:101F200038BD4FF0E0235D690135E2E7201A054B2B
:101F30001860F5E7700A00205C0A002040420F009C
:101F400064000020740A002008B50E4B19600E4B87
:101F50001B68002B10DC08B9002008BDFFF7B2FF9A
:101F6000094B1B68002B0ADD4FF0E022136943F098
:101F7000020313610020F0E76FF00500EDE7002099
:101F8000EBE700BF6C0A00206400002008B5094B95
:101F90001B682BB16FF00F009847064B00221A60A8
:101FA000054B1A684FF0E0231A61044B4FF0FF32E3
:101FB0001A6008BD6C0A0020700A0020640000202E
:101FC00008B5134B1B68002B1EDC08B9002008BDA8
:101FD000FFF778FF0E4B1B68002B0ADD4FF0E02364
:101FE0001B6913F4803FF5D0094A1368013B136065
:101FF000F0E74FF0E0239A69064B1B689A42F8D845
:10200000FFF7C4FF0020E2E76FF00500DFE700BF45
:1020100064000020740A002050E8003F3BB940E80B
:102020000013002BF8D1BFF35F8F002070476FF0D3
:1020300005007047BFF35F8F002303607047000007
:102040000D4B1B788BB10020704703EB4C110B4AF2
:10205000002042F8210001331F2BF6DD0CF1010CAA
:10206000BCF1040F04DC0023F6E74FF0000CF7E7A7
:10207000014B01221A70E6E7790F0020780A002050
:1020800070B5064604280AD88EB1012E1AD0022E49
:102090001AD0032E1AD0042E07D0002508E04E22B5
:1020A00015491648FEF738F9EEE7154D00E0154DD5
:1020B0002846FEF7DDFD044601462846FEF7C8FD2A
:1020C000002507E0104DF3E7104DF1E7104DEFE765
:1020D0000135640874B114F0010FF9D005EB461313
:1020E0000C4A52F82320002AF2D00B4951F8230061
:1020F0009047EDE770BD00BFB89400100895001040
:1021000000C00040008000400090004000A000405F
:1021100000040840780A0020F80C0020014B1878D1
:10212000704700BF780F002010B504462046FFF727
:1021300047FD0028FAD02046FFF732FD10BD38B524
:1021400004460D462046FFF73FFD0028FAD02946F9
:102150002046FFF729FD38BD014B1868704700BFC6
:102160006800002070B50D4E0D4D761BB61006D0E0
:10217000002455F8043B01349847A642F9D1094E92
:10218000094D761B07F0D0FBB61006D0002455F899
:10219000043B01349847A642F9D170BD180A0020CB
:1021A000180A0020200A0020180A0020024B0146CD
:1021B000186800F003B800BF680000202DE9F04F58
:1021C00001F10B06162E83B0044624D8102900F224
:1021D000BA8000F08FFB102618220220B54F3A4437
:1021E000A2F1080153688B4200F0BA805A68D9689E
:1021F00022F003021A449D68E9608D60516841F045
:1022000001012046516003F1080500F079FB2846E2
:1022100003B0BDE8F08F36F0070600F19480B142BC
:1022200000F2918000F066FBB6F5FC7FC0F09A8169
:10223000730A00F08F80042B00F26F81B30903F161
:10224000390003F1380CC3009A4F3B44A3F1080551
:102250005B689D4206D10CE0002980F22781DB6893
:102260009D4206D05A6822F00302911B0F29F3DD2C
:1022700060463D69DFF850C265457CD06A6822F04F
:102280000302931B0F2B00F37B81002BC7E904CCC7
:1022900080F26C81B2F5007F80F01A81D3087968F2
:1022A00001334FEA521E012202FA0EF20A4357F896
:1022B00033E0C5F808E007EBC3010839E9607A604C
:1022C00047F83350CEF80C508310012199409142C9
:1022D00057D8114206D120F003004900114200F105
:1022E0000400FAD007EBC0094D468646D5F80C80AD
:1022F000454508D11DE1002B80F22481D8F80C80DF
:10230000454500F01681D8F8042022F00302931B03
:102310000F2BF0DD2046D8E9025408EB060146F009
:102320000106C8F80460EC60A56043F00104C7E949
:102330000411C1E902CC4C6048F8023000F0E0FA28
:1023400008F1080502E00C2323600025284603B0AD
:10235000BDE8F08F4FF4007340204FF03F0C73E75F
:10236000D3689A4208BF02307FF440AF3D69DFF87E
:1023700058C1654582D17A68831001219940914204
:10238000A7D9BD686B6823F003094E4503D8A9EBB4
:1023900006030F2B7ADCDFF834B1474BDBF8002063
:1023A0001B680132334405EB090A00F0338103F561
:1023B00080530F3323F47F6828F00F0841462046EE
:1023C00000F00EFB411C024600F0F380824500F253
:1023D000EE803A4B196841441960084600F04E817E
:1023E000DBF80010019301311BBFA2EB0A0A504435
:1023F000CBF80020186012F0070B00F01781CBF12A
:1024000008010A44CBF5805190440831A1EB080142
:10241000C1F30B0A51462046009200F0E1FA421C3B
:10242000DDE9002300F04F81801A00EB0A081968EB
:10243000BA6048F001005144BD425060196000F09C
:102440002981B9F10F0F40F227816868A9F10C0CBE
:102450002CF0070C00F0010040EA0C0068604FF01F
:10246000050E05EB0C00BCF10F0FC0E901EE00F208
:10247000328150681546124B1A688A4238BF19607B
:10248000104B1A688A4238BF196094E0AA1943F0C9
:10249000010346F001066E602046BA60536000F00A
:1024A0002FFA0835284603B0BDE8F08FD9681A44E2
:1024B000A1E600BF98040020AC0F00207C0F002094
:1024C000A40F0020A80F0020A0040020A0080020D6
:1024D000B2F5206F4FEA522363D3142B00F2B7807A
:1024E00003F15C01C9005B3307EB010E7958AEF1D3
:1024F000080E8E4500F091804B6823F00303934251
:1025000002D989688E45F7D1D1F80CE07A68C5E91F
:10251000021ECEF80850CD60D6E6142B59D9542BA4
:1025200000F29D80330B03F16F0003F16E0CC300CA
:102530008AE60EF1010E1EF0030F05F108057FF487
:10254000D5AE51E0424445465368D8F80C1043F0EC
:102550000103536055F8083F2046D9608B6000F0B6
:10256000CFF9F3E6F00806F1080237E62A442046E0
:10257000536843F001035360083500F0C1F9E5E604
:10258000A919204646F0010643F001046E60C7E930
:102590000411C1E902CC4C60AB5000F0B1F9083530
:1025A000D4E6930903F13901C90038339CE7BD42F1
:1025B0005FD0BD68686820F003084645A8EB0603B5
:1025C00002D80F2B3FF762AF204600F099F90025A3
:1025D000BCE603F15C0003F15B0CC30034E659F880
:1025E00008394B4540F0968010F0030F00F1FF30A2
:1025F000F5D17B6823EA01037B60490099423FF6ED
:10260000C0AE19B9BDE649000EF1040E1942FAD068
:10261000704667E603F11008D0E69A104FF0010803
:102620007B6808FA02F21A437A6070E702EB08014D
:102630004942C1F30B0A51462046009200F0D0F9FE
:10264000431CDDE900237FF4EFAEDA46EFE6542BBE
:1026500025D8130B03F16F01C9006E3344E7B3F5BE
:10266000AA7F25D8F30B03F1780003F1770CC300A0
:10267000EAE5294B186840441860B1E6CAF30B0C30
:10268000BCF1000F7FF4ACAEBD68C84448F0010057
:102690006860F0E61546EEE60123536094E7B3F573
:1026A000AA7F23D8D30B03F17801C90077331BE746
:1026B00040F25452934223D8B30C03F17D0003F14E
:1026C0007C0CC300C0E5ABF1080BD844A8EB0208B2
:1026D0004FF0000AABE605F108012046009303F035
:1026E00091FABD68009B68681968C4E640F25451CD
:1026F0008B420BD8930C03F17D01C9007C33F3E6C8
:102700004FF47E737F204FF07E0C9DE54FF47E7179
:102710007E23E9E67B6870E77C0F0020844641EA6F
:10272000000313F003036DD1403A41D351F8043B49
:1027300040F8043B51F8043B40F8043B51F8043B9B
:1027400040F8043B51F8043B40F8043B51F8043B8B
:1027500040F8043B51F8043B40F8043B51F8043B7B
:1027600040F8043B51F8043B40F8043B51F8043B6B
:1027700040F8043B51F8043B40F8043B51F8043B5B
:1027800040F8043B51F8043B40F8043B51F8043B4B
:1027900040F8043B51F8043B40F8043B51F8043B3B
:1027A00040F8043B51F8043B40F8043B403ABDD2AA
:1027B000303211D351F8043B40F8043B51F8043B4C
:1027C00040F8043B51F8043B40F8043B51F8043B0B
:1027D00040F8043B103AEDD20C3205D351F8043BDB
:1027E00040F8043B043AF9D2043208D0D2071CBFA7
:1027F00011F8013B00F8013B01D30B8803806046D0
:10280000704700BF082A13D38B078DD010F0030345
:102810008AD0C3F10403D21ADB071CBF11F8013BB5
:1028200000F8013B80D331F8023B20F8023B7BE704
:10283000043AD9D3013A11F8013B00F8013BF9D22F
:102840000B7803704B7843708B78837060467047C9
:10285000830730B548D0541E002A3FD0CAB2034681
:1028600001E0013C3AD303F8012B9D07F9D1032C79
:102870002DD9CDB245EA05250F2C45EA054536D9B7
:10288000A4F1100222F00F0C03F1200EE6444FEAEF
:10289000121C03F1100242E9045542E902551032BC
:1028A0007245F8D10CF1010214F00C0F03EB021287
:1028B00004F00F0C13D0ACF1040323F00303043332
:1028C000134442F8045B9342FBD10CF003042CB197
:1028D000CAB21C4403F8012B9C42FBD130BD6446B4
:1028E0001346002CF4D1F9E703461446BFE71A4615
:1028F000A446E0E7014803F02FBC00BFB40F00205E
:10290000014803F02BBC00BFB40F00200FB400B58A
:10291000074983B004AB086853F8042B816801931E
:1029200000F0FEF803B05DF804EB04B0704700BFA0
:102930006800002070B5054688B008460C4600F0D7
:102940007FF8224EAA6B059001214318CDE906615C
:1029500004A8022104940393AC680190029122B36D
:10296000636E13F0010FB4F90C309AB201D19805DF
:1029700025D5910406D4626E43F4005322F400522C
:10298000A3816266284601AA214603F041FA636EDC
:10299000002814BF4FF0FF350A25DA0702D4A389B7
:1029A0009B0506D5284608B070BD284603F032F8CE
:1029B000D6E7A06D03F0D2FB284608B070BDA06D2D
:1029C00003F0CAFBB4F90C309AB2D2E72C95001090
:1029D000024B01461868FFF7ADBF00BF680000203A
:1029E00038B5074D0022044608462A60FDF7B6FEBA
:1029F000431C00D038BD2B68002BFBD0236038BDB2
:102A0000C00F0020000000000000000000000000D7
:102A100000000000000000000000000000000000B6
:102A200000000000000000000000000000000000A6
:102A30000000000000000000000000000000000096
:102A400090F800F06DE9024520F007016FF0000CEE
:102A500010F0070491F820F040F049804FF0000496
:102A60006FF00700D1E9002391F840F000F1080071
:102A700082FA4CF2A4FA8CF283FA4CF3A2FA8CF3A9
:102A80004BBBD1E9022382FA4CF200F10800A4FA10
:102A90008CF283FA4CF3A2FA8CF3E3B9D1E9042364
:102AA00082FA4CF200F10800A4FA8CF283FA4CF39B
:102AB000A2FA8CF37BB9D1E9062301F1200182FA55
:102AC0004CF200F10800A4FA8CF283FA4CF3A2FA5B
:102AD0008CF3002BC6D0002A04BF04301A4612BA69
:102AE000B2FA82F2FDE8024500EBD2007047D1E96C
:102AF000002304F00305C4F100004FEAC50514F0FB
:102B0000040F91F840F00CFA05F562EA05021CBFCB
:102B100063EA050362464FF00004A9E700000000E5
:102B20002DE9F04F2DED0A8BD3B01C4609EE101A9B
:102B3000914609EE900A054603F006FB03681793D9
:102B400018460D94FFF77CFF16901DB1AB6B002B60
:102B500000F0488219EE102A536EDB0740F14781DE
:102B6000B2F90C309AB2960409D419EE101A43F453
:102B700000538B819AB24B6E23F400534B661507BA
:102B800040F1CC8019EE103A1B69002B00F0C68092
:102B900002F01A030A2B00F0D2804D469FED9C7B79
:102BA0002B78002429AACDE92744CDE91944CDE9A1
:102BB0001B448DED147B19EE909A12942692904648
:102BC00018940A94002B00F0B081AB4604E01BF887
:102BD000013F002B00F0CD80252BF8D1BBEB050683
:102BE00040F0CB809BF80030002B00F09E8100234A
:102BF0004FF0FF329BF801708DF87B3009930BF199
:102C0000010B08929A462B2420210BF1010BA7F10E
:102C100020035A2B00F20081DFE813F00A03FE00C4
:102C2000FE000503FE00FE00FE006A00FE00FE003E
:102C300076029E02FE008102A802FE00A3025B0053
:102C40005B005B005B005B005B005B005B005B00AC
:102C5000FE00FE00FE00FE00FE00FE00FE008E01F3
:102C6000FE001602ED018E018E018E01FE00FE00B7
:102C7000FE00FE000003FE00FE004502FE00FE0016
:102C8000FE002002FE00C202FE00FE009A07FE00C7
:102C9000FE00FE00FE00FE00FE00FE00FE008E01B3
:102CA000FE001602EF018E018E018E01E602EF0199
:102CB000E801FE00F302FE0086024702D402E801AA
:102CC000FE0020027D007607FE00FE007A07FE006F
:102CD0007D00A7F1300300221BF8017B02EB82028A
:102CE00003EB4202A7F13003092BF5D909928EE7D5
:102CF000484603F029FA43681B931846FFF7A0FEE5
:102D00001C900646484603F01FFA83681993202159
:102D1000002E40F0EA869BF8007076E719EE101A54
:102D200019EE900A19EE105A01F000FD002841F04A
:102D30002483AA8902F01A030A2B7FF42EAF19EE1E
:102D4000101AB1F90E30002BFFF627AF4B6ED907E2
:102D500002D4920541F1568119EE101A19EE900A2B
:102D600023464A4653B0BDEC0A8BBDE8F04F01F054
:102D70009DBCBBEB050600F0D880289B334428930C
:102D8000279B0133072BC8E90056279305DC08F180
:102D900008080A9B33440A9324E719EE101A26AA5E
:102DA000484604F0A3F990B90DF1A408F1E719EE33
:102DB000101A26AA484604F099F9002800F0A680C7
:102DC0000C9B23B119EE900A194602F01BFF19EE75
:102DD000102A536ED80740F1FA8093895A0601F100
:102DE000D5820A9853B0BDEC0A8BBDE8F08FB2F9DA
:102DF0000C309F059AB23FF5B6AE19EE105AA86D89
:102E000003F0AAF9B5F90C309AB2ACE6AFF3008042
:102E10000000000000000000002F00F0868000236A
:102E20008DF8E4708DF87B300122CDE90B230792F9
:102E3000089310931393119339AD1AF002020E9276
:102E400002D0079A023207921AF084020F9205D13B
:102E5000099A0799561A002E00F36883289C8BB1B3
:102E6000279B0DF17B0201330134C8F80020072BAA
:102E70004FF0010228942793C8F8042000F39F83A1
:102E800008F108080E9B83B1279B1FAA0133023467
:102E9000C8F80020072B4FF0020228942793C8F8A7
:102EA000042000F3998308F108080F9B802B00F0A1
:102EB0006A82089B0B9A9E1A002E00F3AB821AF4CA
:102EC000807F40F006820B9BC8F804301C44279B8F
:102ED000C8F800500133072B2894279300F3198377
:102EE00008F108081AF0040F05D0099B079A9D1AEB
:102EF000002D00F38583DDE9092307998A42ACBFE1
:102F00009B185B180A93002C7FF451AF0023279382
:102F10000C9B1BB10C99484602F074FE0DF1A408FD
:102F20005D462B78002B7FF450AE289B002B41F0A0
:102F30001882002327934AE70D9B073323F00703EA
:102F4000B3EC027B8DED147BDDE914120D9322F0BE
:102F500000430AEE101A0AEE903A4FF0FF32B0EE3C
:102F60004A8AF0EE6A8AB74B51EC180B05F06EFFF7
:102F7000002840F0E884B34B51EC180B4FF0FF32BF
:102F800005F046FF002840F0DE84DDE91401002250
:102F9000002305F033FF002840F067879DF87B3061
:102FA000A94DAA4A2AF0800A0321472FC8BF154617
:102FB00000220C9207910B91089210921392119299
:102FC000002B3FF43AAF079A0132079235E7938915
:102FD00099053FF503AF19EE104A906D03F0BEF866
:102FE000A389FBE6284602F015FDB3E59BF80070C7
:102FF0004AF0200A09E64AF0100A1AF0200F0D9B49
:1030000000F04084073323F007031A465B6852F848
:10301000084B0D921E46002BC0F24384089B0133DF
:1030200000F0BC822AF08003079354EA060340F0C4
:10303000B782089B002B40F0B882DDF81CA000236B
:1030400008930B9352AD1FE10D9A002352F8041B15
:103050008DF87B308DF8E4100D92E5E60D9C54F868
:10306000045B00268DF87B60002D00F09085089BA6
:103070005A1C00F051861A463146284603F0E0F803
:103080000C90002801F02C810C9B0896591B0B9189
:1030900021EAE1719DF87B300D9407910C96109612
:1030A000139611968CE74AF0100A1AF0200600F0E9
:1030B000C9830D9B073323F007035E6853F8084B61
:1030C0000D932AF480630793002300228DF87B2060
:1030D000089A551C00F0C080079921F0800A54EA34
:1030E000060140F0B780002A40F00786002BA6D1E9
:1030F000079B13F001030B9300F0148430238DF829
:1031000047310DF24715BFE00D9B53F8042B099290
:10311000002A80F2D583099A0D93524209929BF8B6
:1031200000704AF0040A70E51AF0200F40F0D284D3
:103130001AF0100F40F0E7851AF0400F40F0A98612
:103140001AF4007F00F0DF850D9B0A9953F8042BD9
:103150000D9311705D46E4E69BF800708DF87B409E
:1031600053E59BF800704AF0800A4EE55A4612F883
:10317000017B2A2F01F06D82A7F13003092B9346C2
:1031800098BF002201F2E9801BF8017B02EB82026A
:1031900003EB4202A7F13003092BF5D9089236E57B
:1031A0004AF010030793079B13F0200600F05983A1
:1031B0000D9B073323F007035E6853F8084B0D930C
:1031C000012382E70D9B53F8044B0D9330234AF003
:1031D000020278278DF87C301D4B189307928DF8EA
:1031E0007D700026022370E79BF80070682F03BFF4
:1031F0009BF801704AF4007A0BF1010B4AF0400A87
:1032000003E59BF800706C2F03BF9BF801704AF038
:10321000200A0BF1010B4AF0100AF6E49BF800704B
:103220004AF0080AF1E49BF800704AF0010AECE465
:103230009DF87B30002B7FF46EAD9BF800708DF80D
:103240007B10E2E4FFFFEF7F309500103495001013
:1032500040950010CDF81CA0012B00F0A181022B9D
:1032600052AD20D1189A04F00F032409D35C05F85D
:10327000013D44EA0674360954EA0603F3D152AB21
:103280005B1BDDF81CA00B9308990B989DF87B3015
:1032900081424FF00002B8BF01460C920791109294
:1032A000139211928CE604F00703E40844EA467492
:1032B000F608303354EA06012A4605F8013DF2D1FA
:1032C0000799CC0700F1758252AB5B1B8A460B93C2
:1032D000DAE7652F40F3D780DDE9140100220023EF
:1032E00005F082FD002800F0C681279BC14AC8F87E
:1032F0000020013301340122072B28942793C8F8BA
:10330000042000F3DE8408F10808209B129A9342FF
:1033100080F2D182169B179A1C44C8E90023279B90
:1033200028940133072B279300F3238408F108081E
:10333000129B5D1E002D7FF7D5AD102D279B41F30D
:103340006781AD4F0E972246102619EE104A05E010
:1033500008F10808103D102D40F3C18401331032EC
:10336000072BC8E90076CDE92732F1DD26AA2146F0
:10337000484603F0BBFE00287FF422ADDDE927328A
:103380000DF1A408E6E7099B079A9E1A002E7FF725
:1033900090AD102E279B41F33C8097490F95224614
:1033A00019EE105A0E910C4604E0103E102E08F152
:1033B000080819DD013310321021072BCDE927321F
:1033C000C8F80040C8F80410EFDD26AA2946484690
:1033D0000DF1A40803F08AFE00287FF4F1AC103E42
:1033E000102EDDE92732E5DC0F9D144601330E9ADD
:1033F000C8F800203444072BCDE92734C8F804600E
:1034000000F3A983089B0B9A9E1A002E08F1080866
:103410007FF755AD102E279B40F30F8576480E9011
:103420004246214619EE108A044604E0103E102E52
:1034300002F1080216DD013310311020072BCDE90F
:10344000273114605060F1DD26AA4146484603F05A
:103450004DFE00287FF4B4AC103E102EDDE927317C
:1034600029AAE8DC90460C4601330E9AC8F80020E1
:103470003444072BCDE92734C8F8046000F3D48125
:1034800008F108081BE5129B012B40F37381279E6E
:10349000C8F80050013601340123072E28942796DE
:1034A000C8F8043000F3968308F10808169B179AB1
:1034B00001361C44072EC8E90023CDE9276400F338
:1034C000978308F10808DDE914010022002305F0C4
:1034D0008BFC002840F07B81129B0136013B0135BB
:1034E0001C44072EC8F800502796C8F804302894CA
:1034F00000F3518108F108081A9BC8F8043001361E
:103500001C44072E22ABCDE92764C8F800307FF7B2
:10351000E7AC19EE101A26AA484603F0E7FD00288A
:103520007FF44EAC289C0DF1A408DBE4102EDDE9FD
:10353000273222DD1D95102419EE105A04E0103EAA
:10354000102E08F1080817DD01332C491032072B23
:10355000C8E90014CDE92732F1DD26AA29464846FC
:103560000DF1A40803F0C2FD00287FF429AC103E41
:10357000102EDDE92732E7DC1D9DC8F80460013319
:10358000B418072B1D4AC8F80020CDE9273400F3F2
:103590007D839DF87B3008F1080860E4CDF81CA01D
:1035A0000A2C76F1000380F0318330340123DDF8FA
:1035B0001CA08DF847410B930DF2471564E619EEF8
:1035C000101A26AA484603F091FD00287FF4F8ABB4
:1035D000289C0DF1A40855E419EE101A26AA4846B5
:1035E00003F084FD00287FF4EBAB289C0DF1A408C8
:1035F0005BE400BF70950010849500107495001076
:10360000102D279B20DD19EE107A102604E0103DC6
:10361000102D08F1080817DD0133AC4A1034072BD0
:10362000C8E90026CDE92734F1DD26AA3946484607
:103630000DF1A40803F05AFD00287FF4C1AB103D42
:10364000102DDDE92734E7DC0133A04AC8F8045027
:103650002C44072BCDE92734C8F800207FF74BAC6A
:1036600019EE101A26AA484603F040FD00287FF400
:10367000A7AB289C3FE4209A002A40F32B81DDE988
:1036800011739F42A8BF1F46002F0BDD279B0133FC
:103690003C44072BC8E900572894279300F3D185B1
:1036A00008F10808119E002FA8BFF61B002E00F39A
:1036B0004483119B1AF4806F2B440B9340F0DF84FA
:1036C000209B129A934203DB1AF0010F00F0D28381
:1036D000169A17991444C8E90012279A28940132BF
:1036E000072A279200F3BB8508F10808129A0B9964
:1036F000AE18761AD51AAE42A8BF2E46002E0DDDA2
:10370000279BC8F8001001333444072BC8F8046025
:103710002894279300F3068608F10808002EA8BF16
:10372000AD1B002D7FF7DEAB102D279B40F370877C
:10373000674F0E972246102619EE104A05E008F151
:103740000808103D102D40F3CA8201331032072BB8
:10375000C8E90076CDE92732F1DD26AA21464846A0
:1037600003F0C4FC00287FF42BABDDE927320DF118
:10377000A408E6E71AF0010F7FF489AE279EC8F887
:103780000050013601340123072E28942796C8F8EB
:1037900004307FF7AFAE19EE101A26AA484603F0A0
:1037A000A5FC00287FF40CABDDE927640DF1A4082B
:1037B000A2E6302B3FF463AD3023023A05F8013C1A
:1037C00052AB9B1ADDF81CA00B9315465CE5129BCF
:1037D0005D1E002D7FF790AE102D40F31F873C4AF1
:1037E000CDF820A0234619EE10AA0E9210271446F9
:1037F00005E008F10808103D102D40F3E382013682
:103800001033072EC8E90047CDE92763F1DD26AA6A
:103810005146484603F06AFC00287FF4D1AADDE94E
:1038200027630DF1A408E6E719EE101A26AA484608
:1038300003F05CFC00287FF4C3AA289C0DF1A408C7
:10384000FFF73DBB1AF0100340F03E811AF0400232
:1038500000F0C8820D9A52F8044B0D921E46A4B295
:103860002FE4079B13F0100366D1079A12F0400271
:1038700000F0C6820D9A52F8044B0D921E46A4B277
:10388000012322E453F8044B0D931AF0100F4FD18B
:103890001AF0400F48D044F3C036334624B2FFF745
:1038A000BABB2D2364428DF87B3066EB4606CDF81B
:1038B0001CA001230CE41AF0010F3FF413AB29E51F
:1038C0009BF800700D93FFF7A0B900BF749500102E
:1038D00084950010279BB649C8F8001001330134C5
:1038E0000121072B28942793C8F8041000F3808443
:1038F00008F10808002A40F04682129A0AF00103F3
:1039000013433FF4EFAA169B179A1C44C8E90023FF
:10391000279B28940133072B279300F3648308F136
:10392000080841E252ADAFE41AF4007F40F0AB82E8
:10393000E6173346FFF76FBB0D9B53F8044B0D930F
:103940000123FFF7C2BBDDE9140102460B4605F077
:103950007DFA002840F02C86612F00F07D85412FF4
:1039600000F0A082089B013327F02003079300F0AA
:10397000C285472B00F0A985DDE914014AF4807265
:1039800000290B924FF00003C0F2418441EC1B0B65
:103990000E930C93079B462B00F07084452B00F090
:1039A0002285089B019324AB049321AB039320ABA6
:1039B000029302230093484653EC1B2B00F0C4FFF4
:1039C000079B472B054640F05B861AF0010F5646D1
:1039D000DDF82CA040F0DF84249B5B1B1293079B37
:1039E000472B00F01683079B462B00F08584209B15
:1039F0001193119B079A013B412A209300F0E68521
:103A0000FAB20021002BB8BF119B8DF88820BABFF5
:103A1000C3F101032D222B22092B8DF8892040F3BD
:103A20006E850DF19704DFF898C1224610468CFB95
:103A30000321DA17C2EBA10202EB8201A3EB4101E1
:103A4000303100F8011C19466329134600F1FF329A
:103A5000ECDC3033D9B2831E9C4202F8011C40F2E8
:103A60000B8613460DF18A0201E013F8011B02F8E0
:103A7000011B9C42F9D10DF199030DF18A021B1A29
:103A8000134422AA9B1A1A93129B1A9A012B1A44C6
:103A90000B9240F3AF850B9B169A13440B930B9A32
:103AA000002326F4806622EAE27246F4807A1093BC
:103AB0000792139311930E9B002B40F0D982089329
:103AC0009DF87B30FFF77CBA0D9B53F8044B0D93A8
:103AD000FFF7F7BA0D9B0A9853F8041B0D93C21712
:103AE000C1E900025D46FFF71CBA199B002B3FF4A9
:103AF00012A9199B1B78002B3FF40DA99BF80070AD
:103B00004AF4806AFFF781B8CDF81CA0FFF74BBBE1
:103B1000284B18931AF0200654D00D9B073323F03E
:103B200007035E6853F8084B0D931AF0010F09D094
:103B300054EA060306D030238DF87D704AF0020A5D
:103B40008DF87C302AF4806307930223FFF7BDBA17
:103B5000194B1893DEE719EE101A26AA484603F00F
:103B6000C5FA00287FF42CA9289C0DF1A408FFF7C2
:103B7000A0B919EE101A26AA484603F0B7FA002891
:103B80007FF41EA9289C0DF1A408FFF7D1BB089A69
:103B90000C95062A294628BF062208952B4607922F
:103BA000064D0D940B92109113911191FFF708BAE5
:103BB0007095001040950010549500106895001005
:103BC000676666661AF0100370D00D9B53F8044BBD
:103BD0000D93AAE719EE101A26AA484603F086FAB2
:103BE00000287FF4EDA8DDE927640DF1A4085DE469
:103BF00019EE101A26AA484603F078FA00287FF436
:103C0000DFA8DDE927640DF1A4085CE4079B00222E
:103C100003F48063CDE90B7808EE109A0DF5A47AD1
:103C2000DDF86490174698460CE0002320463146A4
:103C30000A2205F049F90A2C76F100031CD3044648
:103C40000E46AA4620460A220023314605F03CF9DA
:103C500030320AF1FF3501370AF8012CB8F1000FB4
:103C6000E3D099F800309F42DFD1FF2FDDD00A2C3E
:103C700076F1000380F0E580CDF864901297DDF8CE
:103C800030800B9F18EE109AFFF7F9BA19EE101A50
:103C900026AA484603F02AFA00287FF491A89DF846
:103CA0007B30289C0DF1A408FFF7D9B81AF0400228
:103CB00000F0B6800D9A52F8044B0D921E46A4B245
:103CC00033E719EE101A26AA484603F00FFA002827
:103CD0007FF476A8289C0DF1A408FFF716BB1446C4
:103CE00001330E9AC8F800202C44072BC8F8045062
:103CF000CDE927347FF7F4A80BE4012BCDF81CA005
:103D00007FF4ADAA51E40D9B0A9953F8042B5D464C
:103D100011600D93FFF705B9284608960D94FEF73C
:103D20008FFE20EAE0719DF87B300B9007910C9696
:103D3000109613961196FFF743B9102E279B40F368
:103D40009484BA480E904246214619EE108A1027F4
:103D5000044604E00832103E102E40F3378201334F
:103D60001031072BC2E90047CDE92731F2DD26AA41
:103D70004146484603F0BAF900287FF421A8DDE95E
:103D8000273129AAE7E7169B17991C44C8E90013B5
:103D9000279B28940133072B279300F3248108F1F4
:103DA0000808002AC0F2FA82129AC8F800500133BB
:103DB0001444072BCDE92734C8F804207FF790A8D6
:103DC000FFF7A7BBDDF820A01C4601360E9BC8F804
:103DD00000302C44072ECDE92764C8F804507FF743
:103DE00089ABD8E40D9B1AF4007614BF53F8044B4A
:103DF00053F8044B0D931CBF1646E4B2FFF761B9AC
:103E0000079B13F400760D9B14BF53F8044B53F833
:103E1000044B0D931CBF1646E4B20123FFF755B9BE
:103E20000D9B1AF4007614BF53F8044B53F8044B5F
:103E30000D931CBF1646E4B277E67C4A0E92FFF75C
:103E400013BB1C9B1B99ED1A1A46284603F0E0F899
:103E500099F801300BB109F10109204631460A22D7
:103E60000023002705F030F8E9E62D238DF87B309C
:103E7000FFF796B8129A0B99AE18761AD51AAE4279
:103E8000A8BF2E464AE444F3C016334664B2FFF797
:103E9000C2B80D9B0A9953F8042B0D9311805D460F
:103EA000FFF73FB830238DF87C3058238DF87D30F4
:103EB000089B632B4AF0020400F3D38200230C9387
:103EC00039ADDDE914124AF481730B93002A27F00F
:103ED0002003A2460793C0F29B81002342EC1B1BE8
:103EE0000E93612F00F04C83412F7FF453AD20AA35
:103EF00051EC1B0B03F00EF800224FF07F5304F03F
:103F00000BFD02460B4643EC182B0022002304F065
:103F10006BFF08B101232093454B0F93089B1D9520
:103F2000CDE9107BCDE912A80CEE109ADDF83CB07B
:103F300059EC188B5E1E2C4605E000220023013E42
:103F400004F052FFE0B93B4B00224046494604F0E2
:103F5000E3FC8946804604F08FFF054604F072FCBE
:103F60000B4602464946404604F01EFB1BF805304E
:103F7000A24604F8013B731C374680468946DCD1D3
:103F800049EC188B2C4BDDF84C8051EC180B0022BF
:103F90003E461CEE109ADDE9107BCDF840A011954D
:103FA000DDF848A01D9D04F047FF002840F038824E
:103FB00051EC180B204B002204F016FF18B1119B96
:103FC000D90700F12D82002E334606DB013323444E
:103FD000302204F8012BA342FBD1631B56461293F7
:103FE000DDF82CA0FBE419EE101A26AA484603F0CF
:103FF0007DF800287EF4E4AEDDE92734209A0DF147
:10400000A408CEE619EE103A986D02F0A7F8FEF774
:10401000A3BE209B1193DA1C02DB089A93420DDDAC
:10402000023F27F020030793E3E400BF84950010CC
:1040300054950010000030400000E03FDDE91132EF
:104040009342C0F28081F00740F19782169A1344A0
:104050000B93710503D5119B002B00F360820B9B22
:1040600023EAE3730793672700231093139322E552
:104070002D2300228DF87B300892FEF7A4BF129BFF
:10408000CDF838B0DDF84CB00B9E199FCDF82CA0C0
:10409000EB1808934246DDF870A0109B0F9519EEBF
:1040A000108AA446BBF1000F30D0002B71D1013F24
:1040B0000BF1FF3B1B9BC2E9003A279B0133D44421
:1040C000072BCDF8A0C0279367DC0832089B38780F
:1040D0009B1B8342A8BF0346002B1C460BDD279881
:1040E00001309C440728C2E90063CDF8A0C02790A6
:1040F0005FDC38780832002CACBF051B0546002D6C
:1041000017DC0644109BBBF1000FCED1002B40D131
:104110000F9D129BDDF82CA0DDF838B01997EB1835
:104120009E429046324628BF1A4664460B92FFF7DD
:10413000C7BA102D27981FDD1024634604E0103DF8
:10414000102D02F1080216DD0130B44910330728A2
:10415000C2E90014CDE92703F1DD26AA414648460D
:1041600002F0C4FF00287EF42BAE103D102DDDE9D7
:10417000270329AAE8DC9C460130A84B5560AC44D3
:104180000728CDE9270C13604DDC38780832064447
:10419000B8E7109B013B10938CE726AA414648469E
:1041A00002F0A4FF00287EF40BAEDDF8A0C029AA1F
:1041B0008CE726AA4146484602F098FF00287EF484
:1041C000FFAD3878DDF8A0C029AA94E790460C46E8
:1041D00001330E9AC8F800203444072BCDE9273468
:1041E000C8F8046000F3638108F10808FFF761BABA
:1041F00019EE101A26AA484602F078FF00287EF42D
:10420000DFAD209A289C0DF1A408FFF773BB0C9337
:10421000DDE9141202F100430BEE903A2D230BEE70
:10422000101A0E935DE626AA4146484602F05EFF4C
:1042300000287EF4C5AD3878DDF8A0C029AA064470
:1042400060E719EE101A26AA484602F04FFF002830
:104250007EF4B6AD289C0DF1A408FFF723BA19EE41
:10426000101A26AA484602F041FF00287EF4A8ADA5
:10427000209B289C0DF1A408FFF738BA089B0193F6
:1042800024AB049321AB039320AB0293032300934D
:10429000484653EC1B2B00F057FB0378302B0546A8
:1042A00000F09A81209B089A56461344DDF82CA012
:1042B000EC1851EC1B0B0022002304F095FD10B10B
:1042C0002346FFF78ABB249BA342BFF486AB302171
:1042D0005A1C24921970249B9C42F9D8FFF77DBB8D
:1042E000089B07930B930D949DF87B3008901090DA
:1042F00013901190FEF764BE209A1192002A40F3A9
:104300009181089906F001030B4340F03081119B25
:104310000B936627730500F103810B9B23EAE3737C
:104320000793A1E619EE101A26AA484602F0DEFE0F
:1043300000287EF445AD209D129B289C5D1B0DF14D
:10434000A408FFF7EBB9129B169A9A18119B0B92CF
:10435000002B40F354816727DCE700230893FEF726
:1043600056BC19EE101A19EE900A26AA02F0BEFEEB
:1043700000283EF4DEADFEF72ABD6B6EDC0705D4E7
:10438000AB89980502D4A86D01F0E8FE4FF0FF3329
:104390000A93FEF726BD089BEC188AE756421032B6
:1043A00080F270811D480E904246214619EE108A17
:1043B0001027044603E00832103E102E5BDD013367
:1043C0001031072BC2E90047CDE92731F3DD26AADA
:1043D0004146484602F08AFE00287EF4F1ACDDE951
:1043E000273129AAE8E7089B5C1C24AB049321AB86
:1043F000039320AB029302230093019453EC1B2BF5
:10440000484600F0A1FA054656462C44DDF82CA09B
:104410004FE7024A0E92FEF7E9BF00BF84950010F5
:10442000109B24930F9B14F8012CD97B8A422346BE
:1044300009D1302003F8010C249B5A1E249213F852
:10444000012C9142F6D0392A0BBF0F9A0132927A91
:10445000D2B203F8012CC0E530238DF87C307823EC
:1044600024E5591C4846FDF7A9FE0546002800F042
:104470000C810C9025E590460C4601330E9AC8F845
:1044800000203444072BCDE92734C8F804607FF7B7
:1044900046AA19EE101A26AA484602F027FE00285E
:1044A0007EF48EACDDE927340DF1A4087CE419EE2E
:1044B000101A26AA484602F019FE00287EF480ACA5
:1044C000289C0DF1A408FFF7F4B8089B002B08BF47
:1044D00001230893159B4AF48072002B0B92C0F2C3
:1044E0009B809DED147B0E900C90B0EE47BAF0EEE1
:1044F00067BAFFF756BA06230893FFF73DBA0029BB
:1045000040F0A48030228DF88A200DF18B023033E8
:1045100002F8013B22ABD31A1A93FFF7B5BA67270B
:1045200019990B78FF2B00F0A3800024119A2046E4
:1045300003E001300131FF2B08D0934206DAD21A92
:104540004B78002BF5D10B780134F4E719911192D7
:1045500013901094109A139B1C9913440B9A01FB0F
:1045600003230B9323EAE3730793FFF7A4BA169B85
:10457000D31819440B916627CCE6119B0B9368E581
:1045800020AA51EC1B0B02F0C5FC00224FF07F5318
:1045900004F0C2F902460B4643EC182B002200231C
:1045A00004F022FC08B1012320933C4B0F93B5E4A7
:1045B000159B3B4D3B4A002BB6BF2D239DF87B300E
:1045C0008DF87B302AF0800AFEF7EEBC07F10F026F
:1045D000D2B20121FFF716BA51EC1B0B00220023C7
:1045E00004F002FC00287FF45DAE089BC3F10103D8
:1045F000209358E6F4077FF552AAFFF74CBAC3F1AF
:1046000001031A4422EAE2730B92079367272BE512
:10461000254A0E92FFF764BB0C90F9E5224B0E93EE
:10462000FFF7D3BB089A06F0010656EA020304D14D
:104630000123079366270B9316E5169B01331A4453
:1046400022EAE2730B92079366270DE50DF18A02C9
:104650005DE70D9B9BF80170934653F8042B0D9377
:1046600042EAE2720892FEF7D0BA0F4A0E92AFE524
:104670000023109313936DE702231A93FFF704BAF4
:10468000089CC1E6084A0E92F7E619EE102A9389B3
:1046900043F040039381FEF79ABB00BF40950010A2
:1046A000389500103C9500108495001070B50C46AC
:1046B0008989ADF58E6D21F00201ADF81410616E9F
:1046C0001B91E189ADF81610E1690991616A0B91BE
:1046D0001CA9029106914FF480610646049107914E
:1046E00018A80021CDE90032089101F031FDDDE983
:1046F000003202A93046FEF713FA051E07DB02A9B5
:10470000304601F053F9002818BF4FF0FF35BDF8CF
:1047100014305B0603D5A38943F04003A3811898A6
:1047200001F018FD28460DF58E6D70BD38B5334B80
:104730001B6805460C460BB19A6B12B3B4F90C30EA
:1047400018079AB225D5216900292DD012F0010051
:1047500007D00020A06060694042A06139B100200C
:1047600038BD950758BF6069A0600029F7D11206CF
:1047700058BF0846F4D543F04003A3814FF0FF3003
:1047800038BD184601F046F9B4F90C3018079AB252
:10479000D9D4D1062AD5520714D4216943F008038D
:1047A000A3819AB20029D1D102F42070B0F5007F24
:1047B000CCD02146284601F0D3FCB4F90C30216955
:1047C0009AB2C3E7216B51B104F14002914204D087
:1047D000284601F017FAB4F90C300022226321694F
:1047E0000022C4E9001223F02403D7E7092243F092
:1047F00040032A604FF0FF30A38138BD68000020DD
:10480000024B13B1024800F005B8704700000000E9
:10481000395B0010002301461A46184603F0C6BB58
:104820002DE9F04F03690C69A34283B0C0F2878081
:10483000013C01F11405A30000F11408009355F8A0
:10484000243058F82420013381469A4208EB840032
:1048500005EB84070190B2FBF3F63BD30023AE4691
:1048600040469B465EF804AB02681FFA8AFC06FBD2
:104870000C334FEA134C4FEA1A4A06FB0ACA1FFAD6
:1048800083FCABEB0C0C1FFA8AF31CFA82FCC3EB23
:10489000124202EB2C421FFA8CFC4CEA0243774591
:1048A00040F8043B4FEA224B4FEA1A43DAD2009B0E
:1048B00058F8033073B9019B043B984504D307E0D3
:1048C000984504F1FF3403D253F80429002AF7D0A5
:1048D000C9F81040484602F007F800282BDB0136E3
:1048E0004046002355F8041BD0F800C08AB29A1A3B
:1048F0000B0C12FA8CF2C3EB1C4303EB224392B273
:1049000042EA0342AF4240F8042B4FEA2343E9D284
:1049100058F8242008EB84036AB9043B984504D373
:1049200007E0984504F1FF3403D253F80429002A24
:10493000F7D0C9F81040304603B0BDE8F08F002032
:1049400003B0BDE8F08F00BF2DE9F04F2DED068BD1
:10495000016C95B090469946CDE90489279D04469F
:1049600041B1426C4A60012393408B6001F05AFDD3
:1049700000232364B9F1000AB4BF012300232B6094
:104980007B4BBCBF2AF0004ACDF814A033EA0A03DF
:1049900000F0B2809DED047B002251EC170BB0EECD
:1049A000479AF0EE679A002304F01EFA074680B19A
:1049B000269A01231360289B002B00F0DA826D48B1
:1049C0001860431E0393039815B0BDEC068BBDE839
:1049D000F08F12AB019313AB0093204653EC192BCD
:1049E000B0EE498AF0EE698A02F046F85FEA1A569C
:1049F000054640F09980DDE912763E4406F23240E9
:104A0000202840F3AA83C0F140000AFA00FA06F217
:104A1000124028FA00F04AEA000003F003FF0123E5
:104A2000013E0D93A1F1F871534B002203F0BCFD40
:104A300049A3D3E9002303F06FFF49A3D3E900237F
:104A400003F0B4FD80463046894603F0FBFE46A3E2
:104A5000D3E9002303F060FF02460B464046494677
:104A600003F0A4FD8046894604F006FA002283463E
:104A700000234046494604F0C1F9002840F06C820A
:104A8000BBF1160F00F25B823C4B03EBCB03D3E987
:104A9000002351EC190B04F0B1F9002874D0002365
:104AA000BE1B0C93731E0BF1FF3B069300F14E826D
:104AB00000230993BBF1000F6DDA099BCDF81CB000
:104AC000A3EB0B030993CBF100030B93249B092B5E
:104AD0004FF0000B68D8052B40F33D83043B249333
:104AE0000026249B023B032B00F29886DFE813F09C
:104AF0004D044A0441042404269A42F20F73CAF377
:104B0000130A13605AEA08031DD1289B002B00F0FA
:104B10007C861B4B03930833289A0398136015B0C7
:104B2000BDEC068BBDE8F08F18EE903AC3F313038B
:104B300051EC190B43F07F510D97A6F2FF36129FEF
:104B400041F4401170E7289B002B40F0D9830D4BB6
:104B5000039338E7AFF3008061436F63A787D23FC9
:104B6000B3C8608B288AC63FFB799F501344D33F5C
:104B70000000F07F719500100000F83FE0960010F3
:104B80009895001094950010BE1B731E069300F1BB
:104B90009A840C900990069B5B44CDE9063B002368
:104BA0000B93249B092B96D90023CDE924330126AE
:104BB0004FF0FF330A960893089B0F93002161641E
:104BC000204601F009FC0390002800F02F86039B8B
:104BD0002364089B0E2B00F2F980002E00F0F68073
:104BE0000799002940F37184BD4B01F00F0203EBDC
:104BF000C2034FEA2118C905D3E9006740F10384D5
:104C0000B84B51EC190BD3E9082303F0AFFF41EC8B
:104C1000180B08F00F084FF0030AB8F1000F13D07B
:104C2000DFF8C09218F0010F09D030463946D9E9B3
:104C3000002303F071FE0AF1010A06460F465FEAFF
:104C4000680809F10809EDD151EC180B32463B46D2
:104C500003F08CFF41EC1A0B0C9B5BB157EC1A6B09
:104C6000A14B1AEE100A0022394604F0C7F80028BA
:104C700040F05285504603F0E5FD53EC1A2B03F04B
:104C80004BFE9A4B002203F091FC089B8046A1F159
:104C90005079002B00F0F383079B1093089B0E9331
:104CA0000A9B002B00F0C0840E9A8D4B9049DDF8D2
:104CB0000CA003EBC20353E90223002003F056FFCC
:104CC00042464B4603F070FC59EC1A8B41EC180B32
:104CD00049461AEE100A04F0CFF8074603F0B2FD79
:104CE00002460B461AEE100A494603F05DFC3037C7
:104CF0000AF8017B53EC182B06460F4604F07EF8A9
:104D0000002840F055854FF000080AEE105ACDF803
:104D100044B055465BEC18AB08EE104A44462AE016
:104D20000E9B01349C424BDA724B5046594600228E
:104D300003F0F2FD6F4B002282468B463046394627
:104D400003F0EAFD8946804604F096F8074603F032
:104D500079FD02460B464046494603F025FC3037B4
:104D600005F8017B52465B4606460F4604F046F8BE
:104D7000002840F0188532463B465B49002003F08E
:104D800013FC52465B4604F039F80028C8D0109B4B
:104D9000039A0793AA4618EE104A1AEE105A02E038
:104DA000924500F0EA84D1461AF8013D392BF7D03C
:104DB0000133DBB28AF80030079B01330793ABE184
:104DC000DDF844B01AEE105A18EE104A139B002B6F
:104DD000C0F29480079A0E2A00F39080404B03EBB8
:104DE000C203D3E90089259B002B1BDA089B002B0B
:104DF00018DC40F05D83404B00224046494603F0FA
:104E00008BFD02460B4651EC190B04F001F8DDF85E
:104E100020A05646002800F0D082259BDDF80C80AB
:104E2000DF43D2E242464B4651EC190B03F09EFEA3
:104E300004F022F80646834603F004FD42464B4642
:104E400003F06AFD0B46024651EC190B03F0ACFB74
:104E5000DDF80CA0334630330AF8013B089B012BE8
:104E600000F08E834FF0010B08EE105A08EE904AC6
:104E70001D465446DA461DE042464B46304639460A
:104E800003F074FE03F0F8FF834603F0DBFC4246B8
:104E90004B4603F041FD0AF1010A0B460246394632
:104EA000304603F081FB0BF13003AA4504F8013BC7
:104EB00000F061830F4B002203F02EFD002200233F
:104EC00006460F4603F090FF0028D5D0A24618EE04
:104ED000105A18EE904A079B01330793D1461BE105
:104EE000E0960010B89600100000F03F00001C4053
:104EF0000000E03F00002440000014400A9A002A0D
:104F00003FD0249A012A40F39C82089B03F1FF388A
:104F10000B9B4345C0F26E82A3EB0808089B002B55
:104F2000C0F26683069A1A440692099A17461A44F2
:104F300009920121204601F023FB064625E00123CA
:104F4000BE1B0C93731E06937FF5B2ADC6F1010331
:104F5000099300230693ADE5584603F073FC4246DF
:104F60004B4603F041FF00287FF48AAD0BF1FF3B75
:104F700086E5874B0393039815B0BDEC068BBDE81F
:104F8000F08FDDE90976DDF82C80002F0CDD069A24
:104F9000002A09DD0999BA421346A8BF3B46C91A3F
:104FA000FF1AD31A099106930B9BDBB10A9B002BC6
:104FB00000F08282B8F1000F0FDD314642462046F4
:104FC00001F0BAFB2A4601460646204601F006FBE0
:104FD00029460546204601F025FA0B9BB3EB080253
:104FE00040F000830121204601F0CAFABBF1000F16
:104FF000824600F3B780249B012B40F385814FF05C
:1050000000090120BBF1000F40F0B880069A10445F
:1050100010F01F0000F09680C0F12003042B40F335
:10502000F883099BC0F11C00034402440993074420
:105030000692099B002B05DD29461A46204601F001
:10504000DBFB0546069B002B05DD51461A46204634
:1050500001F0D2FB82460C9B002B40F03681089B6E
:10506000002B40F31D810A9B002B40F0A080079B82
:1050700001330793DDF80C80DDF82090012707E06D
:10508000294600230A22204601F0D6F901370546B9
:1050900051462846FFF7C4FB4F4500F1300008F8A1
:1050A000010BEDDB089A002AC8BF9346039AD8BFCC
:1050B0004FF0010B03469344002729460122204666
:1050C000049301F099FB5146054601F00DFC0028C0
:1050D00040F3A5811BF8013C039A0BF1FF3B04E070
:1050E0005A4500F0A7811BF8013D392B0BF101094E
:1050F000F6D001338BF800305146204601F092F98A
:1051000056B12FB1B74203D03946204601F08AF993
:105110003146204601F086F92946204601F082F901
:10512000002389F80030269B079A1A60289B002BE1
:105130003FF449AC0398C3F8009015B0BDEC068B62
:10514000BDE8F08F1C20099B03440993069B034490
:10515000074406936DE70126C3E4C0F1200008FA76
:1051600000F05AE401465A46204601F0E5FA249B35
:10517000012B824640F3D5814FF00009DAF8103058
:105180000AEB8303186901F0ABF9C0F120003DE799
:1051900070950010314600230A22204601F04CF998
:1051A0000F9B002B064640F32383CDE90783002F96
:1051B00000F31981B9F1000F40F0FD81B046049B66
:1051C000039F089903F001027B1E1944249B0B9254
:1051D000134309910A9351462846FFF721FB3146B4
:1051E0008346284601F080FB4246514681462046D0
:1051F00001F09CFBC26801460BF13003002A42D14A
:1052000006902846089301F06FFB0699049020460B
:1052100001F008F9049A089B1AB90A99002900F0CC
:10522000D782B9F1000FC0F28881249949EA0109B7
:105230000B9951EA090100F08081002A00F3E8810E
:10524000099A3B7007F101099742CB4600F0E681CD
:10525000294600230A22204601F0EEF8464505467D
:1052600031464FF000034FF00A02204612D001F001
:10527000E3F84146064600230A22204601F0DCF806
:105280004F468046A7E72046049301F0CBF8049BE5
:105290000122C6E701F0D0F84F46064680469AE75D
:1052A000249B022B78DC0A9B002B80D1079B514664
:1052B000013328460793FFF7B3FADDF80CB000F18D
:1052C00030030BF8013B0027F7E65146284601F072
:1052D0000BFB0028BFF6C3AE294600230A22204656
:1052E00001F0AAF8079B03F1FF380A9B0546002B43
:1052F0007FF450AF0F9B002B40F371820893B9E607
:10530000BD4B0393033307E4DDE9041200297FF466
:1053100076AEC2F31303002B7FF471AEB74B13408C
:10532000002B00F03E82099B01330993069B013359
:1053300006934FF0010964E601230A93259B079A1F
:1053400013440F930133012B1F460893B8BF012765
:105350000021172F61647FF733AC012204235B0027
:1053600003F11400B842114602F10102F7D9616459
:1053700026E401230A93259B002B4BDD0F93089312
:105380001F46E5E700230A93D8E700230A93F2E7D4
:105390000F9BCDF81C800893089B002B7FF43DAD3C
:1053A00051460522204601F047F80146824628462C
:1053B00001F09AFA00287FF730AD0398079F312358
:1053C000804600F8013B013703905146204601F02A
:1053D00029F87B1CDDF80C900793CDF80C80002E8B
:1053E0007FF496AE98E631463A46204601F004FA3C
:1053F0000646DFE60B9BCDF82C80A8EB03039B440D
:105400004FF000088AE54FF0020AB0EE498AF0EE4C
:10541000698A02E4012325930893FFF7CDBB03D1EA
:10542000049BDB073FF556AED9461BF8013D302BF8
:10543000FAD061E6079B039A013307933123137077
:105440005AE60D9A002A00F0638103F23343069A6C
:10545000DDF82C801A440692099A17461A440992DC
:1054600067E5504603F0EEF953EC1A2B03F054FABB
:10547000634B002203F09AF88046A1F15079614B0A
:10548000002251EC1A0B03F08FF842464B460646B9
:105490000F4603F0D1FC002840F07F8130463946AA
:1054A000424609F1004303F0A9FC00283FF48EAC0A
:1054B0004FF0000A5646B0E429460B9A204601F008
:1054C0003BF905468EE50C9040E500F04E81079AC9
:1054D0004D4B564206F00F0203EBC203D3E9002303
:1054E00051EC190B03F018FA361141EC1A0B00F0CD
:1054F0008881464F00234FF0020AF20706D5D7E90C
:10550000002303F009FA0AF1010A0123761007F1DA
:105510000807F2D1002B3FF49FAB41EC1A0BFFF7C9
:105520009BBB049B002B7FF427AEDDE90412C2F382
:105530001303002B3FF4F2AE1EE6002A12DD2946CB
:1055400001222046049301F057F95146054601F027
:10555000CBF90028049B40F33581392B00F01381EF
:105560000BF13103B94609F8013B079B013337467C
:1055700007934646C0E5A24618EE105A18EE904A28
:1055800002460B4603F012F842464B4606460F46CB
:1055900003F052FC60B942464B463046394603F0B0
:1055A00023FC00283FF497AC5FEACB717FF593AC06
:1055B000039AFFF7F8BB7168204600F00DFF07461D
:1055C000002800F03A81336902339A0006F10C0199
:1055D0000C30FDF7A3F839460122204601F00CF902
:1055E0008046ECE52946204601F0A6F80546F9E498
:1055F000DDE908239F1A9CE4949500100000F07FD9
:1056000000001C4000001440E0960010B896001006
:10561000392B00F0B880B9460133A4E7079A01326C
:1056200037460792464648E50E988D4901EBC00182
:1056300042464B4651E9020103F06EF95AEC1A9BBF
:1056400041EC180B51461AEE100A03F015FC074600
:1056500003F0F8F802460B461AEE100A514602F023
:10566000A3FF06460E98DDF80C803037012808F8B5
:10567000017B0F4600F0BA800E9B039ACDF838B03C
:1056800013449B46C246774B00223046394603F00E
:1056900043F98946804603F0EFFB074603F0D2F852
:1056A000303702460B464046494602F07DFF0AF875
:1056B000017BDA4506460F46E5D1DA46DDF838B01B
:1056C000694B59EC188B002218EE100A494602F07B
:1056D0006DFF32463B4603F091FB00286DD118EE7A
:1056E000102A4B466049002002F05EFF32463B46DE
:1056F00003F0A2FB00283FF469ABD1460AF1FF3A60
:1057000019F8013C302BF8D0109B0133079303E5C7
:10571000129BC3F136039AE6089B002B3FF4A1AE1F
:105720000F9B002B7FF752AB079A0E93013A4D4B1C
:1057300010921AEE100A3946002203F0EDF80246E4
:1057400016460F460AF1010003F07CF832463B464C
:1057500003F0E2F8454B002202F028FF47EC1A6BF9
:105760008046A1F15079FFF79BBA4FF0020AB0EEE4
:1057700049AAF0EE69AAFFF76FBA079B01330793B6
:105780003123FFF717BB079BBB4601330793392330
:1057900037460BF8013B46469EE44FF0000A56465A
:1057A0000BE699462DE4AA4618EE104A1AEE105A56
:1057B000109B01330793D146AEE4109B039A0793E5
:1057C000FFF7F1BA7FF4CEAEDA077FF5CBAEC4E6D1
:1057D000392BD8D0B9F1000F3FF7C2AEC2E6249BF7
:1057E000022B3FF7D5ADCDF81C805FE5C24667E7D9
:1057F000249B022B3FF7CCAD0F9BCDF81C80089368
:10580000D5E44FF0020AFFF727BA194B0393FFF7CD
:10581000DAB83FF40EACC0F13C0094E400266664B4
:105820003146204600F0D8FD039068B9114B12486C
:1058300000224FF4D57102F0FFFB0E4B0E483A46A2
:1058400040F2EA2102F0F8FB039B236401224FF0AF
:10585000FF3325960F930A920893FFF7B7BA00BF5C
:10586000E0960010000024400000E03F00001C40D3
:1058700098950010A4950010B8950010B1F90C206F
:105880002DE9F0410C461107804647D4636842F485
:105890000062002BA2815EDDA56A002D58D0002396
:1058A000D8F80060C8F8003093B212F4805256D194
:1058B0000123E1694046A847431C67D0A389A56A34
:1058C0005F0705D56368C01A236B0BB1E36BC01A81
:1058D000E169024600234046A847411C41D1D8F85F
:1058E0000030002B3DD01D2B01D0162B56D1A389A3
:1058F0002269226023F4006300216160A381216B8F
:10590000C8F8006021B304F14003994202D0404638
:1059100000F078F900202063BDE8F0812669BEB16F
:1059200093B2256826609A070CBF63690023AD1BFC
:10593000A3600BE02B463246E169676A4046B847F0
:10594000B0F1000CA5EB0C05664417DD002DF1DC71
:105950000020BDE8F081E36B002B9DDCF8E7206DB3
:10596000AEE7B4F90C302269226023F40063A3810E
:105970000022DB046260C2D52065C0E7A38943F042
:1059800040034FF0FF30A381BDE8F081D8F800302C
:10599000002B93D01D2B06D0162B04D0A38943F0E7
:1059A0004003A381D5E7C8F80060D1E738B50C46BD
:1059B000054608B1836BA3B1B4F90C00B8B1636EAE
:1059C000DB0701D4810515D528462146FFF756FF90
:1059D000636EDA07054602D4A3899B050ED52846D7
:1059E00038BD00F017F8B4F90C000028E7D10546DF
:1059F000284638BDA06D00F0AFFBE5E7A06D00F0D4
:105A0000ADFB284638BD00BF014900F079BB00BF9F
:105A1000158100102DE9F0478246394800F09CFBC3
:105A2000DAF83840002C66D1DAF80450354ACAF862
:105A30003C200323CAE9B843DFF8DC90DFF8DC80C0
:105A4000314F324E04230AF53B72CAF8E822214650
:105A5000C5E90243C5E90044C5E904446C6608226F
:105A6000AC6105F15C00FCF7F3FEC5E90759C5E937
:105A70000987EE6205F1580000F06AFBDAF8085079
:105A8000234BEB602146C5E90044C5E904446C663C
:105A9000AC60AC61082205F15C00FCF7D9FEC5E9F9
:105AA0000759C5E90987EE6205F1580000F050FB7F
:105AB000DAF80C50174BEB602146C5E90044C5E904
:105AC00004446C66AC60AC61082205F15C00FCF734
:105AD000BFFE05F15800C5E90759C5E90A76C5F8C2
